000012466333975000A494414401SEEMA RASHEED       PLOT NO C.33 GRD FLOOR BLOCK 3.A SCHEME NO 36 GULISTAN E JAUHAR                 0000001003200000000227                                     G1.6       05
000026257115847000A494414501SEEMA RASHEED       PLOT NO C.33.IST FLOOR BLOCK 3.A SCHEME NO 36 GULISTAN E JAUHAR                 0000000440800000000183                                     G1.6       05
0000391995268150002830768901NAWAB ALI           H NO C-33/I GROUND FLR LEFT PORTION BLOCK 3-A GULISTAN E JAUHAR                 0000000728200000000111                                     G4         05
0000499738281760002830769001NAWAB ALI           H NO C-33/I GROUND FLR RIGHT PORTION BLOCK 3-A GULISTAN E JAUHAR                0000001553800000000234                                     G4         05
0000554426548090001811442301ZAHIR AHMED         H.NO.A-8 BLK 31 A-KDA SCHEME 36 GULISTAN-E-JAUHAR                               0000000180800000000110                                     G-4 GEN3   05
000068492450759000A572980201FAHIM HASHMI        PLOT NO B 157 BLOCK 3/A K D A SCHEME 36 GULSITAN E JAUHAR KARACHI               0000000852800000000327                                     G1.6       05
000078095216789000A614084701MUHAMAMD ZAHID MEHFOPLOT NO 156-1ST FLOOR BLOCK 3/A K D A SCHEME 36 GULISTAN E JAUAHR               0000000178000000000090                                     G1.6       05
000086313341127000A614085001MUHAMMAD ZAHID MEHFOH NO.156  BLOCK/3-A KDA SCH 36  GULISTAN E JAUHAR                               0000000183300000000064                                     G1.6       05
0000904614504230001811441601FOUZIA SIKANDAR     PLOT NO B-154 BLOCK NO 3-A GULISTAN E JAUHAR KARACHI.                           0000000223300000000210                                     G-4 GEN3   05
000107877333360000A603503801NAJAM-UDDIN GHOUSRI HOUSE NO  B-154 1ST FLOOR  BLOCK  3/A GULISTAN-E-JUHAR                          0000000459800000000153                                     G1.6       05
000118572450553000A630229401YASMIN AMIR         H NO.B/155 BLOCK/3/A GULISTAN E JAUHAR KARACHI                                  0000000091700000000005                                     G1.6       05
000121001771496000A533269101SHAHNAZ PARVEEN     H.NO-B/158 BLOCK-NO-3/A GULISTAN-E-JAUHAR                                       0000001164500000000216                                     G1.6       05
0001386604391370002791009101SHAIKH MOHAMMAD WAHAH.NO-B/159 IST FLOOR BLOCK-3/A KDA SCH-36 GULISTAN E JAUHAR                     0000000760200000000138                                     G4         05
0001440210032870002683459201SHAIKH MOHAMMAD WAHAH.NO-B/159 GRD/FLOOR BLOCK-3/A KDA SCH-36 GULISTAN E JAUHAR SSGC#1523        N060000000729100000000000                                     G4         05
000155319174503000A591664101SYED QAMAR ABBAS ZAIPLOT NO. B 153 GROUND FLOOR BLOCK 3/A SCHEME 36 GULISTAN E JOUHAR               0000000353800000000209                                     G1.6       05
000163143149867000A591664001SYED QAMAR ABBAS ZAIPLOT NO. B-153 1ST FLOOR BLOCK 31-A SCHEME 36 GULISTANE JOUHAR                  0000000394200000000119                                     G1.6       05
000175757714741000A420875501MUZAFFAR IMAM       GROUND FLOOR H.NO. B-161 BLOCK 3/A GULSITAN E JOUHAR                            0000001566900000000126                                     G1.6       05
000181554323372000A420875401MUZAFFAR IMAM       IST FLOOR H.NO. B-161 BLOCK 3/A GULSITAN E JOUHAR                               0000000784900000000098                                     G1.6       05
000191388582204000A505298901SHAIKH RUSTAM ZAMAN HNO B-152 GR FLR RIGHT PORTION BL 3/A SCH 36 GULISTAN E JAUHAR                  0000000385800000000085                                     G1.6       05
000200549687066000A591311401SHAIKH RUSTAM ZAMAN H NO B 152 1ST FLR BLK 3/A SCH 36 G/JAUHAR                                   M030000000145100000000022                                     G1.6       05
000214232998505000G000449201MUHAMMAD ZAMAN      H NO 152 GR FLR BLK 3/A SCH 36 G/JAUHAR                                         0000000457400000000000                                     G1.6 ACD   05
0002214836691450001718516001MOHAMMAD ZAMAN      HNO B- 152 1ST FLR RIGHT PORTION BL 3/A SCH 36 GULISTAN E JAUHAR                0000000450000000000159                                     G-4 GEN3   05
000230103935227000A537760001AMNA BEGUM          PLOT NO B 163 2ND FLR BLK 3 A SCH 36 GULSTAN E JOHAR                            0000000454700000000074                                     G1.6       05
000247313450928000A618452001AMNA BEGUM          HOUSE NO B/163 GR; FLOOR BLOCK 3-A SCH 36 GULISTAN E JOHAR KARACHI              0000000336400000000134                                     G1.6       05
000258140030204000A591120101AMNA BEGUM          HOUSE NO B/163 ,FIRST FLOOR BLOCK 3-A SCH 36 GULISTAN E JOHAR KARACHI           0000000127600000000041                                     G1.6       05
0002624908194290001811442401FOZIA MALIK         PLOT-B-165 GR FLR BLK-3 SCH-36 G-JUAHAR                                         0000000116300000000057                                     G-4 GEN3   05
000278650562420000A531519001ABDUL QADIR KHATRI  H NO.B/150 IST.FLOOR-F/2 BLOCK/3-A SCH 36 GULISTAN E JAUHAR                     0000000605000000000105                                     G1.6       05
000284979666332000A531518901ABDUL QADIR KHATRI  H NO.B/150 IST.FLOOR-F-1 BLOCK/3-A SCH 36 GULISTAN E JAUHAR                     0000000405200000000075                                     G1.6       05
000292292919927000A531518801ABDUL QADIR KHATRI  H NO.B/150 GR.FLOOR-G-2 BLOCK/3-A SCH 36 GULISTAN E JAUHAR                   M010000000618700000000119                                     G1.6       05
000309376771891000A531518701ABDUL QADIR KHATRI  H NO.B/150 GR.FLOOR-G-1 BLOCK/3-A SCH 36 GULISTAN E JAUHAR                   M130000000117900000000011                                     G1.6       05
000318192540002000A498461501WASEEM AHMED        H NO A/01 BLK 3/A 1ST FLR  GULISTAN E JAUHAR SCH NO 36                          0000000477000000000101                                     G1.6       05
000327558714827000A498461601WASEEM AHMED        H NO A/01 BLK 3/A GULISTAN E JAUHAR SCH NO 36                                   0000000818200000000148                                     G1.6       05
0003388666032790001714970301JAVED KHAN          PLOT NO-A-2 BLOCK-3/A SCH-36 GULISTAN E JAUHAR                                  0000000289800000000078                                     G-4 GEN3   05
000347823708819000A522558901MUHAMMAD AMIR SHAIKHH NO B-160/1 BLOCK 3/A SCHEME 36 GULISTAN E JAUHAR                              0000000622700000000119                                     G1.6       05
000359908748564000A513464101SOBIA KANWAL        H.NO-B-160/2 BLOCK NO-3/A GULISTAN-E-JAUHAR SCHEME-36                           0000000576400000000149                                     G1.6       05
000369682052666000A514443801ABDUL NAVEED        H NO.B/160/2  IST.FLOOR BLOCK/3-A SCH 36 GULISTAN E JAUHAR                      0000000557100000000131                                     G1.6       05
000378308417248000A514443701SHUJAUDDIN QURESHI  H NO.B/160/2  BLOCK/3-A SCH 36  GULISTAN E JAUHAR                               0000000382800000000078                                     G1.6       05
000385716832205000A531130501ABDUL NAVEED        PLOT NO B-160/2 2ND FLOOR BLOCK NO 3/A SCHEME 36 GULISTAN E JAUHAR              0000000233700000000174                                     G1.6       05
0003949381267170001754780401NIGHAT PARVEEN      HOUSE NO.A-3 BLOCK 3/A GULISTAN-E-JUHAR SCHEME-36                               0000000463400000000228                                     G-4 GEN3   05
000400864577590000A484272701MUHAMMAD ATIQ       H NO-A-5 BLOCK-3 A GULISTAN E JAUHAR                                            0000000465800000000054                                     G1.6       05
0004185238330720002283286901FAIZ ALAM           PLOT NO A-6 BLK 3-A SCH 36 GULISTAN JAHUR                                    M100000000648700000000031                                     G4         05
000424542897060000A531078101KHALID AKHTER SIDDIQH NO A 7 BLOCK 3/A GULISTAN E JAUHAR                                            0000000697000000000178                                     G1.6       05
0004347181132470001821260101FAHAD AKBAR ALI     PLOT NO. B-156/3, FIRST FLOOR  F - 1 GULISTAN E JOHAR BLOCK 3/A                 0000000024800000000000                                     G-4 GEN3   05
000442687345162000A644230701FAHAD AKBAR ALI     PLOT NO. B-156/3, FIRST FLOOR  F-2 GULISTAN E JOHAR BLOCK 3/A                   0000000036800000000000                                     G1.6       05
000454962130308000A644230501FAHAD AKBAR ALI     PLOT NO. B-156/3, GROUND FLOOR  G-1 GULISTAN E JOHAR BLOCK 3/A                  0000000005600000000000                                     G1.6       05
000462971360913000A644230601FAHAD AKBAR ALI     PLOT NO. B-156/3, GROUND FLOOR  G- 2 GULISTAN E JOHAR BLOCK 3/A                 0000000072800000000034                                     G1.6       05
000473775127941000A643183001MUHAMMAD JUNAID     PLOT NO - 156 / 2 1ST FLOOR SECTOR - 3- A SCHEME- 36 GULISTAN-E-JAUHAR KARAC    0000000183200000000129                                     G1.6       05
000484268085768000A643182901MUHAMMAD JUNAID     PLOT NO  - 156/ 2 2ND FLOOR SECTOR- 3- A SCHEME- 36 GULISTAN-E- JAUHAR KARAC    0000000118000000000089                                     G1.6       05
000491650631102000A643182801MUHAMMAD JUNAID     PLOT NO - 156/2 SECTOR- 3 - A SCHEME- 36 GULISTAN-E-JAUHAR KARACHI              0000000196000000000180                                     G1.6       05
000505793656217000A643182501MUHAMMAD JUNAID     H NO-156/1 GR.FLOOR SECTOR-3-A GULISTAN E JAUHAR SCHEME-36                   N120000000000200000000000                                     G1.6       05
000516763395272000A643182601MUHAMMAD JUNAID     H NO-156/1 2ND FLOOR SECTOR-3-A GULISTAN E JAHUAR SCHEME-36                     0000000109400000000092                                     G1.6       05
000524392078396000A643182701MUHAMMAD JUNAID     H NO.156/1 SECTOR-3A  1ST FLOOR GULISTAN E JAUHAR SCHEME-36                  N120000000004100000000000                                     G1.6       05
0005385605330450002598056001SYED SABIT ALI SHAH PLOT NO N-05  BLK-03  SCH 36  GULISTAN E JAUHAR                                 0000002301600000000147                                     G4         05
000547462716465000A514456801IRFAN RAUF          PLOT NO R 1/1 GRD FLOOR BLOCK NO 3 SCHEME NO 36 GULISTAN E JAUHAR               0000000161300000000000                                     G1.6       05
000553858916559000A514456901IRFAN RAUF          PLOT NO R 1/1 .IST FLOOR BLOCK NO 3 SCHEME NO 36 GULISTAN E JAUHAR           M010000000149800000000081                                     G1.6       05
000561141974398000A494710701MUHAMMAD ASLAM      H NO.A/7  BLOCK/3/A SCH 36 GULISTAN E JAUHAR                                    0000000921200000000095                                     G1.6       05
000576387997494000A527282501HASINA BIBI         PLOT NO-L-31/B 1ST FLOOR BLOCK-3 SCHEME-36 GULISTAN-E-JAUHAR                    0000000540500000000101                                     G1.6       05
000583475568284000A527282401HASINA BIBI         PLOT NO-L-31/B GROUND FLOOR BLOCK-3 SCHEME-36 GULISTAN-E-JAUHAR                 0000000756500000000114                                     G1.6       05
0005967363306310002832970401FARZANA IKRAM       H NO B-146 1ST FLR BLOCK 3-A GULISTAN E JAUHAR                                  0000000313200000000078                                     G4         05
0006092836217080001710355601FARZANA IKRAM       H NO B-146 GROUND FLR BLOCK 3-A GULISTAN E JAUHAR                            M070000000221200000000035                                     G-4 GEN3   05
000615022138095000A502549701AFROZE SULTANA      H NO.A/335  BLOCK/3 SCH 36 GULISTAN E JAUHAR                                 M020000000247800000000000                                     G1.6       05
0006278581551060001733488101AFROZA SULTANA      PLOT NO. A-335 1ST FLOOR BLOCK NO. 3 SCHEME 36 GULISTAN E JOUHAR                0000000427000000000114                                     G-4 GEN3   05
000632953289954000A502669201MUHAMMAD YASEEN     H NO A-334 BLOCK 3 GULISTAN E JAUHAR                                            0000001008100000000000                                     G1.6       05
000643002067769000A502669301MUHAMMAD YASEEN     H NO A-334 1ST FLOOR BLOCK 3 GULISTAN E JAUHAR                                  0000000711100000000092                                     G1.6       05
000658288725573000A502669401MUHAMMAD YASEEN     H NO A-334 2ND FLOOR BLOCK 3 GULISTAN E JAUHAR                                  0000000595200000000145                                     G1.6       05
000664639119569000A485892001SYED MUHAMMAD YOUSUFH NO R-333 BLOCK 3 SCH 36 GULISTAN E JAUHAR                                  M280000000263300000000005                                     G1.6       05
000674543867502000A560581001SYED AALAY MEHDI JAFHOUSE NO-A-333-1ST- FLOOR BLOCK-03 SCHEME- 36 GULISTAN E JAUHAR                 0000000146100000000054                                     G1.6       05
000680280526344000A560580901SYED AALAY MEHDI JAFHOUSE NO-A-333-GROUND- FLOOR BLOCK-03 SCHEME- 36 GULISTAN E JAUHAR              0000000111400000000091                                     G1.6       05
000695268140853000A523913801SAEEDA AMBREEN FATIMPLOT NO-R-332 BLOCK-3 SCHEME-36 GULISTAN E JAUHAR                               0000000471600000000057                                     G1.6       05
000707119808297000A604321801AYESHA IRFAN        PLOT NO R 327  1ST FLOOR  BLOCK-3  SCHEME 36 GULISTAN E JOHAR                M060000000155500000000073                                     G1.6       05
000711205812105000A604321701AYESHA IRFAN        PLOT NO R 327  GR FLOOR  BLOCK-3  SCHEME 36 GULISTAN E JOHAR                    0000000117600000000054                                     G1.6       05
000727503341933000A530873301SHAIKH JAWAID RASOOLH.NO-A/330 GROUND FLOOR BLOCK-3 GULISTAN-E-JAUHAR SCHEME-36                  M460000000228100000000024                                     G1.6       05
000737060402538000A530872501SHAIKH JAWAID RASOOLH.NO-A/330 1ST FLOOR BLOCK-3 GULISTAN-E-JAUHAR SCHEME-36                        0000000698600000000157                                     G1.6       05
000746795392955000A628129601SHAMIM NADEEM BAIG  PLOT NO A 329 BLK NO 3 KDA SCHEME 36 GULISTAN E JAUHAR                       M010000000089900000000085                                     G1.6       05
0007530177916340001811520801IRSHAD              HNO B- 143 1ST FLR BACK PORTION BL 03/A GULISTANN E JAUHAR                      0000000411200000000283                                     G-4 GEN3   05
000765191569487000A618451201ZAIB UN NISA PARVEENH NO B 143 BLK 3/A KDA SCHEME 36 GULISTAN E JAUHAR                              0000000334400000000193                                     G1.6       05
0007749824507050001811442501SHKEEL AHMED        PLOT NO.B/143  IST.FLOOR BLOCK/3/A GULISTAN E JAUHAR KARACHI                    0000000109700000000055                                     G-4 GEN3   05
0007839824507880001811441701SHKEEL AHMED        PLOT NO.B/143  GR.FLOOR BLOCK/3/A GULISTAN E JAUHAR KARACHI                     0000000097500000000063                                     G-4 GEN3   05
0007980868925530001710922701NUSRAT AFROZ        H NO A/328 3RD FLOOR PENT HOUSE F 7 BLOCK NO 3 SCHEME NO 36 GULISTAN E JAUHARM120000000031200000000004                                     G-4 GEN3   05
000803652163129000A535168601NUSRAT AFROZ        H NO A 328  GR FLOOR  F NO 1  BLOCK NO 3 SCHEME 36GULISTAN E JAUHAR             0000000132000000000070                                     G1.6       05
000815866483663000A605810901NUSRAT AFROZ        H NO A/328 3RD FLOOR PENT HOUSE F 6 BLOCK NO 3 SCHEME NO 36 GULISTAN E JAUHARM020000000131500000000035                                     G1.6       05
000827636272383000A535169001NUSRAT AFROZ        H NO.A/328 2ND.FLOOR-F-5 BLOCK/3 SCH 36 GULISTAN E JAUHAR                       0000000369000000000088                                     G1.6       05
000838672054450000A535168801NUSRAT AFROZ        H NO.A/328 IST.FLOOR-F-3 BLOCK-3 SCH 36 GULISTAN E JAUHAR                    M550000000091000000000015                                     G1.6       05
000848047952813000A535168901NUSRAT AFROZ        H NO.A/328 2ND.FLOOR -F NO.4 BLOCK/3 SCH 36 GULISTAN E JAUHAR                   0000000170500000000051                                     G1.6       05
000852286090289000A535168701NUSRAT AFROZ        H NO A 328  1ST FLOOR  F NO 2  BLOCK NO 3 SCHEME 36GULISTAN E JAUHAR            0000000258600000000035                                     G1.6       05
000861553671479000A510658101REHANA SHAFI SIDDIQUPLOT R 326 BLOCK/3 SCHEME 36 GULISTAN E JAUAHR                                  0000000844800000000113                                     G1.6       05
000877103450828000A618451301SYED KHURSHEED BIN AH NO.B/142 RIGHT PORTION BLOCK/3/A GULISTAN E JAUHAR                            0000000262800000000209                                     G1.6       05
000880634237628000A543314101SYED ALI MUHAMMAD   HOUSE NO.A-326 BLOCK-NO-03 GULISTAN E JAUHAR SCHEME- 36                         0000000890900000000100                                     G1.6       05
0008981034508290001811441801SYED ASAD ULLAH     H NO.B/142 LEFT PORTION BLOCK/3/A GULISTAN E JAUHAR                             0000000224700000000102                                     G-4 GEN3   05
0009053604213800001811442001ABDUL QAYYUM KHAN   H/NO-B-141 GR FLR BLK-3/A G-JAUHAR SCH-36                                       0000000089600000000061                                     G-4 GEN3   05
0009114087613840001811441901ABDUL QAYYUM KHAN   H/NO-B-141 1ST FLR BLK-3/A G-JAUHAR SCH-36                                      0000000119600000000074                                     G-4 GEN3   05
000922887413785000A618451401ABDUL QAYYUM KHAN   H/NO-B-141 2ND FLR BLK-3/A G-JUAHAR SCH-36                                      0000000090100000000055                                     G1.6       05
000935015450035000A583378201ABDUL QAYYUM KHAN   PLOT NO B 140 BLK 3/A SCH 36 GULISTAN E JOUHAR                               M020000000002600000000000                                     G1.6       05
000941882358970000A507609101SYED HASSAN RAZA RIZHOUSE NO R-172/A BLOCK 3 SCHEME 36 GULISTAN E JOUHAR                            0000000853600000000166                                     G1.6       05
000958731602512000A535817201SYED TALAT NAHEED   H NO-R-40/1A BLOCK-3 SCHEME-36 GULISTAN E JAUHAR                                0000000644300000000213                                     G1.6       05
000965779483062000A531518001NAJAM US SEHAR      PLOT NO.A/320 BLOCK/3 SCH 36 GULISTAN E JAUHAR                                  0000000763600000000165                                     G1.6       05
0009771605583470001739204101HUMERA NAEEM        H NO B 139 GR FLOOR BLOCK 3/A GULISTAN E JOUHAR SCH 36                       M030000000523500000000252                                     G-4 GEN3   05
000983384773038000A524375101MUHAMMAD SHAHZAD BASH NO R 127  BLOCK 3  SCHEME 36 GULISTAN E JAUHAR                                0000000195100000000069                                     G1.6       05
000997022399260000A591106701ZAHID KHAN          HOUSE NO-A-319-GROUND- FLR. BLOCK-3 GULISTAN E JAUHAR                           0000000280500000000090                                     G1.6       05
001000044488540000A591106801ZAHID KHAN          HOUSE NO-A-319-1ST- FLOOR BLOCK-3 GULISTAN E JAUHAR                             0000000088300000000000                                     G1.6       05
001011821098150000A591330301MIRZA NAUSHAD BAIG  PLOT NO B-137/00 2ND FLOOR BLOCK 3-A SCH 36 GULISTAN E JOHAR                 N020000000086300000000019                                     G1.6       05
001020604122011000A591330201MIRZA NAUSHAD BAIG  PLOT NO B-137/00 IST FLOOR BLOCK 3-A SCH 36 GULISTAN E JOHAR                    0000000116200000000036                                     G1.6       05
001039695418284000A591330101MIRZA NAUSHAD BAIG  PLOT NO B-137/00 BLOCK 3-A SCH 36 GULISTAN E JOHAR                              0000000281500000000126                                     G1.6       05
001042462232580000A508835701SYED MUZAFFAR HASAN H NO A/317 GR FLR BLK 03 SCH 36 GULISTAN E JAUHAR                               0000000579600000000112                                     G1.6       05
001056954230259000A507405601SYED NASIR ABBAS ZAIH.NO-A/318 1ST FLOOR BLOCK-3 GULISTAN-E-JAUHAR                                  0000000339100000000064                                     G1.6       05
001067449013869000A507405501SYED NASIR ABBAS ZAIH.NO-A/318 GROUND FLOOR BLOCK-3 GULISTAN-E-JAUHAR                               0000000523800000000081                                     G1.6       05
001077416455963000A508835601SYED MUZAFFAR HASAN H NO A/317 1ST  FLR BLK 03 SCH 36 GULISTAN E JAUHAR                             0000000615300000000127                                     G1.6       05
0010884703718470002817463601JAMIL HUSSAIN       H NO R-105-A 1ST FLR BLK 3 GULISTAN E JAUHAR                                 M120000000476700000000033                                     G4         05
001099941658668000A631457101JAMIL HUSSAIN       H NO R-105-A 2ND FLR BLK 3 GULISTAN E JAUHAR                                    0000000116500000000124                                     G1.6       05
0011040446889320002817463501JAMIL HUSSAIN       H NO R-105-A GROUND FLR BLK 3 GULISTAN E JAUHAR                              N340000000395900000000000                                     G4         05
001117914643430000A542722301UMAIR DURRANI       H NO A 315 GRD FLOOR BLOCK NO 3 GULISTAN E JAUHAR SCHEME NO 36                  0000000199100000000051                                     G1.6       05
001124340510270000A542722401UMAIR DURRANI       H NO A 315-IST FLOOR BLOCK NO 3 GULISTAN E JAUHAR SCHEME NO 36                  0000000416600000000075                                     G1.6       05
001136682550515000A542722601UMAIR DURRANI       H NO A 315-2ND FLOOR BLOCK NO 3 GULISTAN E JAUHAR SCHEME NO 36                  0000000285300000000048                                     G1.6       05
001141162529218000A655627601MUHAMMAD ADEEL KHAN H NO A-314  1ST FLR  BLK 3 SCH 36 GULISTAN E JAUHAR                             0000000045700000000075                                     G1.6       05
001158859622100000A659063301MUHAMMAD ADEEL KHAN H NO A-314 GR FLR  BLK 3 SCH 36 GULISTAN E JAUHAR                            N400000000000000000000000                                     G1.6       05
001169963499589000A572786301MIRZA HAMIM BAIG    HOUSE NO- 346 BLOCK-03 SCHEME- 36 GULISTAN E JAUHAR                             0000000349500000000113                                     G1.6       05
001170600162705000A538738601ABDUL LATIF         PLOT NO-C-23/1 FLAT NO-2 GROUND FLOOR BLOCK-3/A SCHEME-36 GULISTAN-E-JAUHAR     0000000236400000000073                                     G1.6       05
001184245872267000A538738701ABDUL LATIF         PLOT NO-C-23/1 FLAT NO-3 1ST FLOOR BLOCK-3/A SCHEME-36 GULISTAN-E-JAUHAR        0000000380200000000063                                     G1.6       05
001198563603429000A578029201SOHAIL AKHTAR       PLOT NO-C-23/1  S-2 FLAT NO-6 2ND FLOOR BLOCK-3/A SCHEME-36 GULISTAN-E-JAUHAR   0000000249700000000059                                     G1.6       05
001204511729499000A541506001ABDUL LATIF         PLOT NO-C-23/1 FLAT NO-5 2ND FLOOR BLOCK-3/A SCHEME-36 GULISTAN-E-JAUHAR     M040000000224900000000017                                     G1.6       05
001219860842709000A594718901ABDUL LATIF         PLOT NO-C-23/1 FLAT NO-4 1ST FLOOR BLOCK-3/A SCHEME-36 GULISTAN-E-JAUHAR        0000000396400000000219                                     G1.6       05
001225961470243000A538738501ABDUL LATIF         PLOT NO-C-23/1 FLAT NO-1 GROUND FLOOR BLOCK-3/A SCHEME-36 GULISTAN-E-JAUHAR     0000000662000000000040                                     G1.6       05
001230283924142000A573643701MANSOOR AHMED GHORI HOUSE NO-23/1/A-GROUND- FLOOR BLOCK-3/A SCHEME 36 GULISTAN E JAUHAR          M070000000301000000000028                                     G1.6       05
001244107396114000A573643801MANSOOR AHMED GHORI HOUSE NO-23/1/A-1ST- FLOOR BLOCK-3/A GULISTAN E JAUHAR SCHEME 36                0000000221700000000042                                     G1.6       05
001256914737329000A573643901MANSOOR AHMED GHORI HOUSE NO-23/1/A-2ND- FLOOR BLOCK-3/A GULISTAN E JAUHAR SCHEME- 36               0000000247800000000050                                     G1.6       05
001262820040116000A566529001AYAZ TAUQEER        H NO C-23/1-A 2ND FLOOR 01 BLOCK 3/A GULISTAN E JAUHAR SCH 36                   0000000191600000000068                                     G1.6       05
0012728254760280001715264501MUHAMMAD ZEESHAN    HOUSE NO C-23/1-A 1ST FLOOR-1 BLOCK 3-A GULISTAN E JAUHAR SCHEME 36             0000000226900000000059                                     G-4 GEN3   05
0012851786439570001715264401RAO ZULFIQAR ALI BABHOUSE NO C-23/1-A GROUND  FLOOR-1 BLOCK 3-A GULISTAN E JAUHAR SCHEME 36         0000000357800000000111                                     G-4 GEN3   05
001290573501312000A566529101MUSHTAQ AHMED       H NO C-23/1-A 2ND FLOOR 02 BLOCK 3/A GULISTAN E JAUHAR SCH 36                   0000000205700000000090                                     G1.6       05
0013005351002360001715264601SYEDA DANIA ALI     HOUSE NO C-23/1-A 1ST FLOOR-2 BLOCK 3-A GULISTAN E JAUHAR SCHEME 36          M040000000202000000000005                                     G-4 GEN3   05
0013131143477390001715264701AYAZ TAUQEER        HOUSE NO C-23/1-A GROUND FLOOR-2 BLOCK 3-A GULISTAN E JAUHAR SCHEME 36          0000000187400000000076                                     G-4 GEN3   05
001326268070818000A513976501MUHAMMAD IMRAN      PLOT NO C-32 1ST FLOOR A-2 BLOCK 3-A SCHEME 36 GULISTAN E JAUHAR                0000000465200000000074                                     G1.6       05
001331059092321000A513976301MUHAMMAD IMRAN      PLOT NO C-32 GROUND FLOOR G-2 BLOCK 3-A SCHEME 36 GULISTAN E JAUHAR             0000000398900000000114                                     G1.6       05
001340244240030000A513976201MUHAMMAD IMRAN      PLOT NO C-32 /1 1ST FLOOR UNIT A- 6 BLOCK 3-A SCHEME 36 GULISTAN E JAUHAR       0000000427000000000120                                     G1.6       05
001353477085898000A513976601SABAHAT AHMED KHAN  PLOT NO C-32 1ST FLOOR A-3 BLOCK 3-A SCHEME 36 GULISTAN E JAUHAR                0000000453100000000058                                     G1.6       05
001360086792133000A513976401MUHAMMAD IMRAN      PLOT NO C-32 GROUND FLOOR G-3 BLOCK 3-A SCHEME 36 GULISTAN E JAUHAR             0000000334500000000042                                     G1.6       05
001375607368098000A520658701MUHAMMAD IMRAN      PLOT NO.C/32  2ND.FLOOR-B-2 BLOCK-3/A  SCH 36 GULISTAN E JAUHAR                 0000000286300000000061                                     G1.6       05
001389182485969000A520658601MUHAMMAD IMRAN      PLOT NO.C/32  2ND.FLOOR-B-1 BLOCK/3-A  SCH 36 GULISTAN E JAUHAR                 0000000228900000000103                                     G1.6       05
001390461888483000A520658801SHAIKH MUHAMMAD IDREPLOT NO.C/32  2ND.FLOOR-B-3 BLOCK-3-A  SCH 36 GULISTAN E JAUHAR                 0000000409900000000091                                     G1.6       05
001405323930390000A518921301AFSAR JAHAN         PLOT NO-C-32/3  1ST FLOOR BLOCK-3/A SCHEME-36 GULISTAN E JAUHAR                 0000000548900000000134                                     G1.6       05
001411807002539000A518921201AFSAR JEHAN         PLOT NO-C-32/3 GR FLOOR BLOCK-3/A SCHEME-36 GULISTAN E JAUHAR                M350000000113100000000018                                     G1.6       05
001428699104187000A564327701SHAGUFTA NAJEEB     BUNGLOW NO C-31  GR FLOOR 01 BLOCK 3/A  GULISTAN E JAUHAR SCHEME 36          M130000000351400000000026                                     G1.6       05
0014348400608640001732233301NISHAT TABASSUM     BANGLOW NO C-31 GROUND FLOOR BLOCK 3/A GULISTAN  E JAUHAR SCHEME 36             0000000287300000000097                                     G-4 GEN3   05
001448576575875000A564329001SHAGUFTA NAJEEB     BUNGLOW NO C-31  1ST FLOOR 01 BLOCK 3/A  GULISTAN E JAUHAR SCHEME 36            0000000434800000000186                                     G1.6       05
0014513777064210001730021801NISHAT TABASSUM     BANGLOW NO C-31 FIRST FLOOR BLOCK 3/A GULISTAN  E JAUHAR SCHEME 36              0000000227500000000104                                     G-4 GEN3   05
001461546604912000A500850801ARIF HUSSAIN        PLOT NO-R-96/A BLOCK-3/A GULISTAN-E-JAUHAR                                      0000000587000000000104                                     G1.6       05
001472306247603000A617498501MATEEN AKHTER       HOUSE NO C-18 2ND FLOOR BLOCK 3-A GULISTAN E JAUHER                             0000000270200000000289                                     G1.6       05
0014825746488100002832752301SYED MUHAMMAD ALI   HOUSE NO C-30 BLOCK 3/A GULISTAN E JAUAHR CELL # 021-34615320.                  0000000645500000000084                                     G4         05
001492999321857000A506617301MUHAMMAD ARSHAD KHANPLOT NO C-29/4 BLOCK 3/A SCHEME 36 K.D.A GULISTAN E JAUHAR                      0000000926300000000111                                     G1.6       05
0015098500477170001720799401NAWAB ALI           H NO.C/29-3 BLOCK/3-A KDA SCHEME 36 GULISTAN E JAUHAR                           0000000349900000000089                                     G-4 GEN3   05
001518850277137000A588116501OBAID ULLAH         HOUSE NO. C-28/2 1ST FLOOR BLOCK 3/A GULISTAN E JOUHAR                          0000000176800000000008                                     G1.6       05
001523349768108000A588116601OBAID ULLAH         HOUSE NO. C-28/2 2ND FLOOR BLOCK 3/A GULISTAN E JOUHAR                       M100000000146900000000045                                     G1.6       05
001538051047803000A588116401OBAID ULLAH         HOUSE NO. C-28/2 GROUND FLOOR BLOCK 3/A GULISTAN E JOUHAR                       0000000157600000000006                                     G1.6       05
0015448018858870002742497201MUKHTER AHMED BARKATPLT NO C-20 BLK NO 3/A GUL E JAUHAR                                             0000000717800000000102                                     G4         05
001551733437064000A523658001MUHAMMAD LATIF AZEEMPLOT NO C-28/1  GR FLOOR BLOCK 3/A  GULISTAN E JAUHAR                           0000000571400000000060                                     G1.6       05
001567658537968000A523658101MUHAMMAD LATIF AZEEMPLOT NO C 28/1  1ST FLOOR  BLOCK 3/A GULISTAN E JAUHAR                       M230000000178900000000025                                     G1.6       05
001576822408521000A540813201ABDUL JABBAR        H.NO-C-27/1 2ND FLOOR BLOCK-3/A SCHEME-36 GULISTAN E JAUHAR                     0000000194100000000064                                     G1.6       05
001583849380246000A540813101ABDUL JABBAR        H.NO-C-27/1 IST FLOOR BLOCK-3/A SCHEME-36 GULISTAN E JAUHAR                     0000000295700000000099                                     G1.6       05
0015949359822650001776899901ABDUL JABBAR        H.NO-C-27/1 GROUND FLOOR BLOCK-3/A SCHEME-36 GULISTAN E JAUHAR                  0000000085500000000071                                     G-4 GEN3   05
0016098442244230001810909001SOHAIL BARKATI      H NO.C 19  BLOCK/3-A  GULISTAN E JAUHAR                                         0000000151800000000090                                     G-4 GEN3   05
001613219382539000A611316601ASIF HAYAT          PLOT NO-R-20/C 1ST FLOOR BLOCK-3-A SCHEME-36 GULISTAN E JAUHAR               M230000000068700000000028                                     G1.6       05
001624016513534000A611316701ASIF HAYAT          PLOT NO-R-20/C GROUND FLOOR SCHEME-36 GULISTAN E JAUHAR                         0000000255200000000095                                     G1.6       05
001638751084991000A535556101ABDUL JABBAR        HOUSE NO C 27 GROUND FLOOR G 1 BLOCK 3/A SCHEME 36 GULISTAN E JAUHAR            0000000314700000000080                                     G1.6       05
001648002232574000A535556301ABDUL JABBAR        HOUSE NO C-27 1ST FLOOR F-1 BLOCK 3/A SCHEME 36 GULISTAN E JAUHAR            M080000000071300000000012                                     G1.6       05
001654102671299000A535556501ABDUL JABBAR        HOUSE NO C 27 2ND FLOOR S-1 BLOCK 3/A SCHEME 36 GULISTAN E JAUHAR               0000000414900000000059                                     G1.6       05
001661403410350000A544377001ABDUL MANAN         H NO C 20/1 GRD FLOOR BLOCK 3/A GULISTAN E JAUHAR SCHEME NO 36                  0000000260000000000038                                     G1.6       05
001676843742369000A544377201ABDUL MANAN         H NO C 20/1 2ND FLOOR BLOCK 3/A GULISTAN E JAUHAR SCHEME NO 36               M280000000351200000000009                                     G1.6       05
001688283247493000A607290301SAMRA SUMAIR        H NO.C/20 IST.FLOOR BLOCK-3-A SCH 36 GULISTAN E JOHAR                           0000000163700000000079                                     G1.6       05
0016913235787200001702420501ABDUL QADIR         H NO C 20 2ND FLOOR BLOCK 3/A SCHEME 36 GULISTAN E JAUHAR                    N020000000257700000000068                                     G-4 GEN3   05
001706760982965000A641300401ABDUL QADIR         H NO C 20 IST FLOOR BLOCK 3/A SCHEME 36 GULISTAN E JAUHAR                       0000000046700000000053                                     G1.6       05
0017119195577650001702420301ABDUL QADIR         H NO C 20 GR FLOOR BLOCK 3/A SCHEME GULISTAN E JAUHAR                           0000000205500000000001                                     G-4 GEN3   05
001721320442182000A565801801MADIHA ASIF         PLOT NO-C/21 GROUND FLOOR G-02 BLOCK-3/A GULISTAN-E-JAUHAR SCHEME-36            0000000114600000000015                                     G1.6       05
001733942841975000A630176101MADIHA ASIF         PLOT NO-C/21 1ST FLOOR F-01 BLOCK-3/A GULISTAN-E-JAUHAR SCHEME-36               0000000192200000000222                                     G1.6       05
001748748222836000A572210001MADIHA ASIF         H NO.C/21 FLT NO.1 2ND.FLOOR BLOCK-3/A SCH 36 GULISTAN E JAUHAR              N220000000192500000000000                                     G1.6       05
001753632591585000A613702601SHAGUFTA ANJUM      HOUSE NO-C-21 PENT HOUSE BLOCK- 3-A SCHEME- 36  GULISTAN E JAUHAR               0000000174900000000088                                     G1.6       05
0017600527450070001714972001SYED HASHMAT ULLAH  PLOT NO C 26 IST FLOOR A 5 BLOCK NO 3/A SCH 36 GULISTAN E JOUHAR                0000001220700000000259                                     G-4 GEN3   05
0017748024587420001714972301SYED MATEEN AHMED   PLOT NO C 26 IST FLOOR A 4 BLOCK NO 3/A SCH 36 GULISTAN E JOUHAR             M270000000264100000000010                                     G-4 GEN3   05
0017870580734160001714972201SYED HASHMAT ULLAH  PLOT NO C 26 IST FLOOR A 3 BLOCK NO 3/A SCH 36 GULISTAN E JOUHAR             N010000000280000000000024                                     G-4 GEN3   05
0017949545057280001714972101SYED HASHMAT ULLAH  PLOT NO C 26 IST FLOOR A 2 BLOCK NO 3/A SCH 36 GULISTAN E JOUHAR                0000000778100000000134                                     G-4 GEN3   05
0018010994911470001714971901MOHAMMAD SHAHID SYEDPLOT NO C 26 IST FLOOR A 1 BLOCK NO 3/A SCH 36 GULISTAN E JOUHAR             N070000000021400000000000                                     G-4 GEN3   05
001816337873962000A565802001MADIHA ASIF         PLOT NO-C/21 1ST FLOOR F-02 BLOCK-3/A GULISTAN-E-JAUHAR SCHEME-36               0000000265600000000053                                     G1.6       05
001827671911906000A572210101MADIHA ASIF         H NO.C/21 FLT NO.2 2ND.FLOOR BLOCK-3/A SCH 36 GULISTAN E JAUHAR                 0000000397000000000065                                     G1.6       05
001837645877539000A519911001GEN -SEC-MARIAM -MASPLOT NO  C 22 BLK 3/A NEAR KAMRAN CHOWRANGI GULISTAN E JAUHAR SCH 36            0000000246100000000179                                     G1.6       05
0018457661648130001517387601QARI ABDUL KHALIQ   PLOT NO-C-22,BLOCK-3/A G-JAUHAR                                                 0000000433700000000045                                     G-4 GEN3   05
001856727475531000A583848801MOHAMMAD HAIDER IQBAHOUSE NO C 23 /3 2ND FLOOR BLOCK 3/A GULISTAN E JAUHER                          0000000142300000000061                                     G1.6       05
001860977994891000A588754701MOHAMMAD HAIDER IQBAHOUSE NO C 23/3 IST FLOOR BLOCK 3/A GULISTAN E JAUHER                           0000000212400000000061                                     G1.6       05
001871277417195000A583848601MUHAMMAD HAIDER IQBAHOUSE NO C-23/3 GROUND FLOOR BLOCK 3/A GULISTAN E JAHER                      M420000000070600000000020                                     G1.6       05
0018810259110280001702270001NIGHAT PARVEEN IQBALH.NO-C-23/4 1ST FLOOR BLOCK-13/A NEAR CHOWRANGI GULSHAN-E-JAUHAR SCHEME-36      0000000234000000000087                                     G-4 GEN3   05
0018995396874300001702270101NIGHAT PARVEEN IQBALH.NO-C-23/4 2ND FLOOR BLOCK-13/A NEAR CHOWRANGI GULSHAN-E-JAUHAR SCHEME-36   M590000000109400000000022                                     G-4 GEN3   05
0019060840014750001702269901NIGHAT PARVEEN IQBALH NO C 23/4 GROUND FLOOR BLOCK 3/A NEAR CHOWRANGI GULISTAN E JOHAR SCH 36       0000000262100000000048                                     G-4 GEN3   05
001912203450833000A580083001USMAN SHARIF        PLOT NO C 25 BLOCK/3/A GULISTAN E JAUHAR KARACHI                                0000000459800000000188                                     G1.6       05
001922438020984000A536694501SYED HASHMAT ULLAH  PLOT NO-C/25 1ST FLOOR BLOCK NO-3/A SCHEME-36 GULISTAN-E-JAUHAR                 0000000493500000000145                                     G1.6       05
001937501446717000A536228501SYED HASHMAT ULLAH  PLOT NO-C/25 2ND FLOOR BLOCK NO-3/A SCHEME-36 GULISTAN-E-JAUHAR                 0000000520000000000088                                     G1.6       05
0019410195682880001715882601SYED HASHMAT ULLAH  PLOT NO C 25 1ST FLR A  5 BLK NO 3 A SCH 36 GULISTAN E JAUHAR                   0000000409800000000000                                     G-4 GEN3   05
0019534118376230001715882501SYED HASHMAT ULLAH  PLOT NO C 25 1ST FLR A  4 BLK NO 3 A SCH 36 GULISTAN E JAUHAR                   0000000764300000000174                                     G-4 GEN3   05
001966171450515000M325250201SABIR HUSSAIN       PLOT NO C 23/4 BLOCK 3 A SCHEME NO 36 GULISTAN E JAUHAR                         0000001155200000000041                                     G1.6       05
001974590409884000A668981201AMIR HUSSAIN        FLAT NO F-4  3RD FLR  AFNAN DUPLEX HOUSES PLOT NO FL-6  BLK-3/A  GULISTAN E     0000000000000000000126                                     G1.6       05
001980181450609000A618409201ARSHAD MEHMOOD      PLOT NO-C-23/6 PORTION B-1  BLOCK-3-A SCHEME-36 GULISTAN-E-JAUHAR               0000000244800000000156                                     G1.6       05
001997081450606000A618409101MAZHAR NAFIS        PLOT NO-C-23/6 PORTION B-2  BLOCK-3-A SCHEME-36 GULISTAN-E-JAUHAR               0000000138300000000089                                     G1.6       05
002006081450605000A618236001MUZAFFAR UL ISLAM   PLOT NO-C-23/6 PORTION B-3  BLOCK-3-A SCHEME-36 GULISTAN-E-JAUHAR               0000000165800000000064                                     G1.6       05
0020159714506940001811540401QAISAR MANSOOR      PLOT NO C-23/6 PORTION A 3 BLOCK 3-A SCHEME 36 GULISTAN E JAUHAR                0000000107600000000104                                     G-4 GEN3   05
0020269714506950001811540301SYED EJAZ ALI SHAH  PLOT NO-C-23/6 PORTION A-2  BLOCK-3-A SCHEME-36 GULISTAN-E-JAUHAR               0000000110500000000187                                     G-4 GEN3   05
0020310814506000001811540201MUZAFFAR UL ISLAM   PLOT NO-C-23/6 PORTION A-1  BLOCK-3-A SCHEME-36 GULISTAN-E-JAUHAR               0000000125700000000072                                     G-4 GEN3   05
002045431292540000A523557201RAFAQAT ALI         UNIT-1 GROUND FLOOR PLOT NO-C-23/5 BLOCK-13/A GULISTAN E JAUHAR              M020000000251300000000027                                     G1.6       05
002050865532410000A523557301RAFAQAT ALI         UNIT-2 GROUND FLOOR PLOT NO-C-23/5 BLOCK-13/A GULISTAN E JAUHAR                 0000000199200000000000                                     G1.6       05
002068586219019000A523557401RAFAQAT ALI         UNIT-3 GROUND FLOOR PLOT NO-C-23/5 BLOCK-13/A GULISTAN E JAUHAR                 0000000159600000000043                                     G1.6       05
002071277972158000A599379101RAFAQAT ALI         UNIT-4 IST FLOOR PLOT NO-C-23/5 BLOCK-13/A GULISTAN E JAUHAR                 M060000000181300000000070                                     G1.6       05
002083141921836000A523557601MUHAMMAD ASAAD      UNIT-5 IST FLOOR PLOT NO-C-23/5 BLOCK-13/A GULISTAN E JAUHAR                    0000000304400000000074                                     G1.6       05
002096879947429000A608050901SYED SHAHID HUSSAIN PLOT NO C-23/5 UNIT P-1 PENT HOUSE 2ND FLOOR BLOCK 3/A GULISTAN E JAUHAR        0000000265200000000152                                     G1.6       05
002106624626773000A523557701RAFAQAT ALI         UNIT-6 IST FLOOR PLOT NO-C-23/5 BLOCK-13/A GULISTAN E JAUHAR                 M260000000364800000000013                                     G1.6       05
002119000036705000A618409301SHARIQ AETIMAD      H/NO-C-1/1 BLK-3-A SCH-36 G-JAUHAR                                              0000000277900000000194                                     G1.6       05
002123692450774000A581035801MUHAMMAD DIN        H NO.C/1  BLOCK/3-A SCSH 36 GULISTAN E JAUHAR KARACHI                           0000000347600000000164                                     G1.6       05
002138973476536000A593584501MOHAMMAD DIN        PLOT NO-C/1 1ST FLOOR BLOCK-3/A SCHEME-36 GULISTAN-E-JAUHAR                     0000000257000000000117                                     G1.6       05
002147256603625000A616661501SEEMIN QAMAR        H NO.B/7 FLT NO.2 2ND.FLOOR BLOCK-3-A SCH 36 GULISTAN E JAUHAR                  0000000108100000000057                                     G1.6       05
002151997164124000A569183401SEEMIN QAMAR        H NO.B/7 FLT NO.1 2ND.FLOOR BLOCK-3-A SCH 36 GULISTAN E JAUHAR                  0000000216400000000000                                     G1.6       05
002165531792306000A555120801SEEMIN QAMAR        PLOT NO-B-07-GROUND FLOOR 02 BLOCK 3/A GULISTAN E JAUHAR SCHEME 36              0000000411200000000062                                     G1.6       05
002172555427322000A555120901SEEMIN QAMAR        PLOT NO- B-07-1ST- FLOOR 01 BLOCK-3/A SCHEME 36 GULISTAN E JAUHAR               0000000341900000000110                                     G1.6       05
002180782675827000A555120701SEEMIN QAMAR        PLOT NO-B-07-GROUND- FLOOR-01 BLOCK-3/A GULISTAN E JAUHAR SCHEME 36             0000000290700000000054                                     G1.6       05
002195370218622000A555121001SEEMIN QAMAR        PLOT NO- B- 07-1ST FLOOR 02 BLOCK-3/A SCHEME 36 GULISTAN E JAUHAR               0000000288400000000069                                     G1.6       05
002205806833082000A589966201YASMEEN KAUSAR      H NO.B/6 IST.FLOOR BLOCK-A SEC 3 KDA SCH 36 GULISTAN E JAUHAR                   0000000335800000000177                                     G1.6       05
0022110642787710001511731301YASMEEN KAUSAR      H/NO-B-6 BLK-3-A GULISTAN E JAUHAR SCH-33                                       0000000759200000000017                                     G-4 GEN3   05
002223149910207000A533826601MUHAMMAD JUMA KHAN  BUNGLOW NO.C-2 GR.FLOOR BLOCK-3-A SCH 36 GULISTAN E JAUHAR                      0000000361000000000095                                     G1.6       05
002235794733571000A558354001MUHAMMAD JUMA KHAN  BUNGLOW NO.C/2 IST.FLOOR BLOCK/3-A SCH 36 GULISTAN E JAUHAR                     0000000433800000000125                                     G1.6       05
002242125985895000A615535701ZIA UL HAQ          2ND FLOOR PLOT NO C 2/1 BLOCK 3 A SCHEME 36 GULISTAN E JOUHAR                   0000000258200000000075                                     G1.6       05
002250809811263000A615535501ZIA UL HAQ          GROUND FLOOR PLOT NO C 2/1 BLOCK 3-A GULISTAN E JOUHAR, SCHEME 36               0000000125800000000078                                     G1.6       05
002262142141928000A615535601ZIA UL HAQ          1ST  FLOOR PLOT NO C 2/1 BLOCK 3 A SCHEME 36 GULISTAN E JOUHAR                  0000000164400000000153                                     G1.6       05
0022769012414640001811444501MEHMOOD AKHTER      HOUSE NO.B-5 BLOCK 3-A GULISTAN-E-JUHAR SCHEME 36                               0000000137400000000078                                     G-4 GEN3   05
002289262610950000A536445801MEHMOOD AKHTAR      PLOT NO B-5 1ST FLOOR BLOCK 3-A SCHEME 36 GULISTAN E JAUHAR                     0000000542500000000126                                     G1.6       05
002291681625475000A630225101NAUSHAD BEG         H NO.C/4 GROUND .FLOOR  LEFT SIDE BLOCK-3-A GULISTAN E JAUHAR                   0000000054000000000080                                     G1.6       05
0023019846824730002803949901MUHAMMAD ASADULLAH SH NO.C/4 FIRST .FLOOR  LEFT SIDE BLOCK/3-A GULISTAN E JAUHAR                    0000000417100000000059                                     G4         05
002317885052177000A582471401FAHMIDA NAWAZ       H.NO-B-4 IST FLOOR BLOCK-31/A KDA SCH-36 GULISTAN E JAUHAR                      0000000312200000000086                                     G1.6       05
0023250105199580001811444301FAHMIDA NAWAZ       H NO B 4 BLOCK 3/A KDA SCHEME 36 GULISTAN E JAUHAR                              0000000113600000000084                                     G-4 GEN3   05
0023304491198860002803950201RAHAT JAHAN         H NO.C/4  IST.FLOOR  RIGHT PORTION BLOCK-/3/A  GULISTAN E JAUHAR                0000000728600000000094                                     G4         05
0023420135092600002803950101MUHAMMAD MUSTAFA    H NO.C/4  GR.FLOOR  RIGHT PORTION BLOCK/3/A  GULISTAN E JAUHAR                  0000000358800000000026                                     G4         05
002354151325208000A618451801SHAMSHAD BEGUM      HOUSE NO B-2 1ST FLOOR BLOCK 3-A SCHEME 36 GULISTAN E JAUHAR                    0000000180100000000119                                     G1.6       05
002363615841284000A628129701SHAMSHAD BEGUM      HOUSE NO B-2 GROUND FLOOR BLOCK 3-A SCHEME 36 GULISTAN E JAUHAR                 0000000085400000000048                                     G1.6       05
0023719325897320001811444201SHAMSHAD BEGUM      HOUSE NO B-2 2ND FLOOR BLOCK 3-A SCHEME 36 GULISTAN E JAUHAR                    0000000116000000000059                                     G-4 GEN3   05
0023892738039730001812900201SAIMA MANSOOR PARACHH NO-C-5/1 GROUND FLOOR BLOCK-3 A GULISTAN E JAUHAR                             0000000007700000000000                                     G-4 GEN3   05
0023900464560430001812900101SAIMA MANSOOR PARACHH NO-C-5 IST FLOOR BLOCK-3/A GULISTAN E JAUHAR                                  0000000005200000000000                                     G-4 GEN3   05
0024014480649970001820642101MALIK SHAHNAZ AWAN  HOUSE NO- B-01/01-GROUND- FLOOR BLOCK -3/A-SCHEME 36 GULISTAN E JAUHAR       M010000000001600000000000                                     G-4 GEN3   05
0024170990749480001702319501MALIK SHAHNAZ AWAN  HOUSE NO- B-01/01-1ST- FLOOR BLOCK/-3/A- SCHEME- 36 GULISTAN E JAUHAR           0000000062800000000000                                     G-4 GEN3   05
0024252723283960001820642001MALIK SHAHNAZ AWAN  HOUSE NO B-01/01-2ND- FLOOR BLOCK-3/A-SCHEME-36 GULISTAN E JAUHAR               0000000033400000000000                                     G-4 GEN3   05
0024353102452840001755681701MOHAMMAD KAFEEL     H NO A-19/1 PENT HOUSE NO BLOCK 3/A GULISTAN E JAUHAR                        M060000000104500000000093                                     G-4 GEN3   05
002443262072947000A583243401MUHAMMAD KAFEEL     H.NO-A-19/1 IST FLOOR BLOCK-3/A GULISTAN E JAUHAR                               0000000163700000000052                                     G1.6       05
002458129268240000A583243301MUHAMMAD KAFEEL     H.NO-A-19/1 GROUND FLOOR BLOCK-3/A GULISTAN E JAUHAR                         N450000000000000000000000                                     G1.6       05
002462391201811000A583243501MUHAMMAD KAFEEL     H.NO-A-19/1 2ND FLOOR BLOCK-3/A GULISTAN E JAUHAR                               0000000241800000000176                                     G1.6       05
002475315474798000A525747701SEEMA SALEEM        H NO R 12/1 BLOCK 3/A GULISTAN  E JAUHAR                                     M150000000118100000000016                                     G1.6       05
0024842461273600001702302701ASIA ASHFAQ FAROOQUIH NO R 12/1 IST FLOOR BLOCK 3 A SCH 36 GULISTAN E JOUHAR                        0000000309600000000071                                     G-4 GEN3   05
002494467352328000A485888601ABDUL RAHIM SIDDIQUIPLOT NO.C/7  GR.FLOOR  BACK RIGHT SIDE BLOCK/3/A SCH 36  GULISTAN E JAUHAR   M030000001006500000000063                                     G1.6       05
002505281065725000A485889001ABDUL RAHIM SIDDIQUIPLOT NO.C/7  IST.FLOOR  BACK RIGHT SIDE BLOCK-3-A SCH 36  GULISTAN E JAUHAR     0000000217000000000036                                     G1.6       05
002518728780695000A513573701ABDUL RAHIM SIDDIQUIPLOT NO.C/7  GR.FLOOR FRONT RIGHT SIDE BLOCK/3-A  SCH 36  GULISTAN E JAUHAR  M020000000565700000000009                                     G1.6       05
002522894435046000A485888801ABDUL RAHIM SIDDIQUIPLOT NO.C/7  IST.FLOOR  FORNT RIGHT SIDE BLOCK/3-A  SCH 36  GULISTAN E JAUHAR   0000000506400000000012                                     G1.6       05
002532435654179000A485888301ABDUL RAHIM SIDDIQUIPLOT NO.C/7  GR.FLOOR FRONT LEFT SIDE BLOCK/3/A  SCH 36 GULISTAN E JAUHAR       0000000576500000000040                                     G1.6       05
002545062612242000A485888701ABDUL RAHIM SIDDIQUIPLOT NO.C/7  IST.FLOOR  FRONT LEFT SIDE BLOCK/3-A  SCH 36  GULISTAN E JAUHAR    0000000462200000000098                                     G1.6       05
002555959507103000A485888901ABDUL RAHIM SIDDIQUIPLOT NO.C/7  IST.FLOOR  BACK LEFT SIDE BLOCK-3-A  SCH 36  GULISTAN E JUAHAR     0000000467000000000075                                     G1.6       05
002564363694342000A485888501ABDUL RAHIM SIDDIQUIPLOT NO.C/7  GR.FLOOR BACK LEFT SIDE BLOCK-3-A  SCH 36  GULISTAN E JOHAR     M010000000633400000000015                                     G1.6       05
002575963847644000A544323901MALIK SHAHNAZ AWAN  BUNGLOW NO-B-01 IST FLOOR-2 BLOCK-3/A SCHEME-36 GULISTAN E JAUHAR               0000000342300000000136                                     G1.6       05
002582631171892000A523484901MALIK SHAHNAZ AWAN  H NO-01 1ST FLOOR BLOCK-3/A SCHEME-36 GULISTAN E JAUHAR                      N050000000131000000000000                                     G1.6       05
002593025944673000A523484801MALIK SHAHNAZ AWAN  H NO-01 GR FLOOR BLOCK-3/A SCHEME-36 GULISTAN E JAUHAR                          0000000534800000000234                                     G1.6       05
002606714964721000A544323801MALIK SHAHNAZ AWAN  BUNGLOW NO-B-01 GROUND FLOOR-2 BLOCK-3/A SCHEME-36 GULISTAN E JAUHAR         M010000000253800000000050                                     G1.6       05
002618483474291000A525352701MUHAMMAD ISMAIL     HOUSE- NO- C-9-GROUND- FLOOR 1 BLOCK- 3-A GULISTAN E JAUHAR                     0000000256700000000156                                     G1.6       05
002626267251592000A525352801MUHAMMAD ISMAIL     HOUSE- NO- C-9-1ST-FLOOR 1 BLOCK-3-A GULISTAN E JAUHAR                          0000000582800000000021                                     G1.6       05
002633437137588000A525352501MUHAMMAD ISMAIL     HOUSE- NO- C-9-GROUND- FLOOR 2 BLOCK-3-A GULISTAN E JAUHAR                      0000000636000000000122                                     G1.6       05
002640599451553000A525352601MUHAMMAD ISMAIL     HOUSE NO C-9 1ST FLOOR 2 BLOCK- 3-A GULISTAN E JAUHAR                           0000000329300000000057                                     G1.6       05
0026599822882300002819746201MEHBOOB ALAM        HOUSE NO B-15 1ST FLOOR FRONT PORTION BLOCK 3-A GULISTAN E JAUHAR               0000000485400000000079                                     G4         05
0026635389326250002819746101MEHBOOB ALAM        HOUSE NO B-15 1ST FLOOR RIGHT PORTION BLOCK 3-A GULISTAN E JAUHAR            M010000000156000000000000                                     G4         05
002673801294455000A647325501ABDUL AMIN          HOUSE NO-B-55-GROUND- FLOOR. BLOCK-3/A GULISTAN E JAUHAR                        0000000077000000000159                                     G1.6       05
002684731655214000A647325601ABDUL AMIN          HOUSE NO-B-55-1ST- FLOOR. BLOCK-3/A GULISTAN E JAUHAR                           0000000072600000000092                                     G1.6       05
002695156236056000A564799201NAILA ASIM          H NO C 13-IST FLOOR BLOCK NO 3/A SCHEME NO 36 GULISTAN E JAUHAR                 0000000213200000000015                                     G1.6       05
0027014959399100001815153901SHADMAN ANIS        PLOT NO. B-165/8, IST FLOOR GULISTAN E JAUHAR BLOCK- 3/A                        0000000188000000000122                                     G-4 GEN3   05
002717126006805000A617281301SHADMAN ANIS        H NO-B.165/8 GR FLOOR BLOCK-3 -A SCHEME-36 GULISTAN E JAUHAR                    0000000108200000000028                                     G1.6       05
002722948630556000A584703101AMJAD HAFEEZ        H.NO.L.25 BLOCK.3/A GULISTAN.E.JAUHAR K.D.A. SCHEME.36                          0000000328300000000144                                     G1.6       05
0027394742293230002768737501MOHAMMAD FAISAL QUREFLAT NO 101 GR/FLR PLOT NO A/7D BLK 3/A GULISTAN E JAUHAR KDA SCH 36            0000000263400000000022                                     G4         05
0027443367809010002768737701MOHAMMAD FAISAL QUREFLAT NO 101 - 1ST/FLR  PLOT NO A/7D BLK 3/A GULISTAN E JAUHAR KDA SCH 36     M040000000380100000000027                                     G4         05
0027594988078970002768737901MOHAMMAD FAISAL QUREFLAT NO 301 2ND/FLR PLOT NO A/7D BLK 3/A GULISTAN E JAUHAR KDA SCH 36           0000000202600000000000                                     G4         05
0027680561548100002768738101MOHAMMAD FAISAL QUREFLAT NO 401  - 3RD/FLR PLOT NO A/7D BLK 31/A  GULISTAN E JAUHAR KDA SCH 36      0000000139100000000029                                     G4         05
0027747770262050002768737601MOHAMMAD FAISAL QUREFLAT NO 102 -  GR/FLR PLOT NO A/7D BLK 3/A GULISTAN E JAUHAR KDA SCH 36      M140000000279100000000021                                     G4         05
0027830488411550002768737801MOHAMMAD FAISAL QUREFLAT NO 202 -  1ST/FLR PLOT NO A/7D BLK 3/A GULISTAN E JAUHAR KDA SCH 36     M360000000293300000000013                                     G4         05
0027975498392060002768738001MOHAMMAD FAISAL QUREFLAT NO 302  - 2ND/FLR PLOT NO A/7D BLK 3/A GULISTAN E JAUHAR KDA SCH 36        0000000547800000000171                                     G4         05
0028092973753930002768738201MOHAMMAD FAISAL QUREFLAT NO  402 -  3RD/FLR PLOT NO A/7D BLK 3/A GULISTAN E JAUHAR KDA SCH 36       0000000131700000000005                                     G4         05
002818053548762000A484515901ZOHRA TUL FATIMA    H NO C-125/1 BLOCK 3-A GULISTAN E JAUHAR                                        0000000922200000000193                                     G1.6       05
002821701195551000A570670701MUHAMMAD IMRAN      PLOT NO. C-37/3/A GROUND FLOOR G-2 BLOCK NO. 3/A SCHEME 36 GULISTAN E JOUHAR    0000000146000000000042                                     G1.6       05
002832179419531000A645254601MUHAMMAD DANISH KHANPLOT NO-C-37/2 1ST FLOOR FLAT NO-F-3 BLOCK-3/A GULISTAN E JAUHAR SCHEME-36   M030000000049100000000018                                     G1.6       05
002840901654087000A645254401MUHAMMAD DANISH KHANPLOT NO-C-37/2 1ST FLOOR FLAT NO-F-2 BLOCK-3/A SCHEME-36 GULISTAN E JAUHAR   N120000000000000000000000                                     G1.6       05
002854953968112000A645254501MUHAMMAD DANISH KHANPLOT NO-C-37/2 1ST FLOOR GULISATAN E JAUHAR SCHEME-36                           0000000045500000000000                                     G1.6       05
002868767409490000A645254701MUHAMMAD DANISH KHANPLOT NO-37/2 GR.FLOOR BLOCK-3/A SCH-36 GULISTAN E JAUHAR                     M060000000006300000000000                                     G1.6       05
002870126405525000NC00070501MUHAMMAD HANIF      FLAT NO 102 1ST FLOOR PLOT NO C-37/1 BLOCK-3/A GULISTAN-E-JOUHAR             N010000000000000000000000                                     G1.6       05
002885252458489000NC00070501MUHAMMAD HANIF      FLAT NO G-2 GR FLOOR PLOT NO C-37/1 BLOCK-3/A GULISTAN-E-JOUHAR              N010000000000000000000000                                     G1.6       05
002890738679322000NC00070501MUHAMMAD HANIF      FLAT NO 201 2ND FLOOR PLOT NO C-37/1 BLOCK-3/A GULISTAN-E-JOUHAR             N010000000000000000000000                                     G1.6       05
002907737055839000NC00070501MUHAMMAD HANIF      FLAT NO G-1 GR FLOOR PLOT NO C-37/1 BLOCK-3/A GULISTAN-E-JOUHAR              N010000000000000000000000                                     G1.6       05
002912222836238000NC00070501MUHAMMAD HANIF      FLAT NO 101 1ST FLOOR PLOT NO C-37/1 BLOCK-3/A GULISTAN-E-JOUHAR             N010000000000000000000000                                     G1.6       05
002929192541987000NC00070501MUHAMMAD HANIF      FLAT NO 202 2ND FLOOR PLOT NO C-37/1 BLOCK-3/A GULISTAN-E-JOUHAR             N010000000000000000000000                                     G1.6       05
0029308166654720001710920301ATHAR ALI KHAN      H NO.B/128 BLOCK-3-A SCH 36 GULISTAN E JAUHAR                                M060000000249000000000037                                     G-4 GEN3   05
002946164687693000A533826501ALI RAZA            BUNGLOWS NO B 129 1ST FLOOR BLOCK 3/A SCHEME GULISTAN E JAUHAR                  0000000360500000000080                                     G1.6       05
002951857873732000A533826401ALI RAZA            BUNGLOWS NO B-129 GROUND FLOOR BLOCK 3/A GULISTAN E JAUHAR SCHEME 36            0000000465100000000074                                     G1.6       05
002968253008554000A486137501SOOFIA FAHEEM       H NO-B-130 1ST FLOOR BLOCK-3/A SCHEME-36 GULISTAN E JAUHAR                      0000000544600000000142                                     G1.6       05
002976670123979000A485778101ZEENAT RASHID       HOUSE NO 131 BLOCK 3/A SCHEME 36 GULISTAN E JAUHAR                              0000001749000000000341                                     G1.6       05
0029861296161300002679534701SOFIA FAHEEM        H.NO-B/130 BLOCK-3/A SEC-36 G-JUHAR                                          M950000000995300000000010                                     G4         05
002992297869512000A483890301TAYYABA KAMAL       H.NO-B/133 BLOCK-3/A GULISTAN-E-JAUHAR                                          0000000370600000000031                                     G1.6       05
0030006162462140001734950601JAWED ASLAM SIDDIQUIH.NO-165/6 BLOCK-3/A  SCH-36 GULISTAN-E-JAUHAR                               M030000000056100000000001                                     G-4 GEN3   05
003018372211040000A612924601SHAHIDA PARVEEN     H NO-C 37-6 GROUND FLOOR  G-2 BLOCK-3 -A GULISTAN E JAUHAR SCHEME-36            0000000104200000000000                                     G1.6       05
003022520118108000A612924501SHAHIDA PERVEEN     H NO-C-37-6, IST FLOOR  F-2 BLOCK-3-A  GULISTAN E JAUHAR SCHEME-36              0000000056400000000000                                     G1.6       05
003039063652605000A604851501SHAHIDA PARVEEN     HOUSE NO-C-37/6-GROUND-FLR. BLOCK-3/A GULISTAN E JAUHAR                         0000000272300000000131                                     G1.6       05
003046223388266000A483568301MUHAMMAD YASEEN     H.NO-R-1/9 BLOCK-3/A SCH-36 GULISTAN-E-JAUHAR                                   0000000835400000000035                                     G1.6       05
003057322304675000A481690101SYED SUBHAN ALI     H NO B/165/5 -1ST FLR BLK 3/A GULISTAN E JAUHAR SCH 36                          0000000509800000000086                                     G1.6       05
003067487003805000A481691801SYED SUBHAN ALI     H NO B/165/5 GR FLR BLK 3/A GULISTAN E JAUHAR SCH 36                         M060000000535000000000023                                     G1.6       05
003073350921487000A494683901FAIZAN              H NO A-I/6  2ND FLOOR  BLOCK 3-A GULISTAN E JAUHAR                           M120000000337700000000031                                     G1.6       05
003087308191158000A487921301FAIZAN              H NO A-1/6 1ST FLR BLOCK 3/A SCH 36 GULISTAN E JAUHAR                        M040000000254100000000084                                     G1.6       05
003099883209893000A488290201FAIZAN              H NO A-1/6 GROUND FLR BLOCK 3/A SCH 36 GULISTAN E JAUHAR                        0000000068200000000002                                     G1.6       05
0031030094475610001812899201OBAID UR REMAN      H NO.B 165/1,1ST FLOOR, BLOCK-3/A, GULISTAN E JAUHAR SHEME 36                   0000000133200000000107                                     G-4 GEN3   05
0031123886095890001812899101OBAID UR REHMAN     H NO-B-165/1 GR FLOOR SCHEME-36 GULISTAN E JAUHAR                               0000000185100000000128                                     G-4 GEN3   05
003124892332337000A502612701NUSRAT JAHAN        PLOT NO A/1-5 UNIT S/3 BLK 3/A GULISTAN E JAUHAR                                0000000598200000000087                                     G1.6       05
003136261943495000A495614301OBAID UR REHMAN     PLOT NO-A-1/05 UNIT-F-1 1ST FLOOR BLOCK-3/A KDA SCHEME-36 GULISTAN E JAUHAR  M020000000462200000000000                                     G1.6       05
003140404162562000A495614201AQEEL UR REHMAN     UNIT G-1 GROUND FLOOR  PLOT NO A-1/5 BLOCK 13/A KDA SCHEME 36 GULISTAN E JAU    0000000357600000000042                                     G1.6       05
003153891282201000A620422901AQEEL UR REHMAN     H.NO-L-8/1 SECTOR-3/A IST FLOOR GULISTAN E JAUHAR KDA SCHEME-36                 0000000325800000000213                                     G1.6       05
0031650115924400001733258601AQEEL UR REHMAN     H.NO-L-8/1 SECTOR-3/A 2ND FLOOR GULISTAN E JAUHAR KDA SCHEME-36              N020000000177900000000100                                     G-4 GEN3   05
0031799926977620001733258401AQEEL UR REHMAN     H.NO-L-8/1 SECTOR-3/A GROUND FLOOR GULISTAN E JAUHAR KDA SCHEME-36           M020000000132100000000050                                     G-4 GEN3   05
0031867271104940001700232101KHAWAJA MEHMOOD AKHTHOUSE NO B-165/2 BLOCK 3/A KDA SCH 36 GULISTAN E JAUHAR                      M030000000128200000000010                                     G-4 GEN3   05
0031998996442540002831306401FAIZAN              H NO A-41/3 2ND FLR BLK 3A GULISTAN E JAUHAR                                    0000000613300000000166                                     G4         05
0032007193883400002831306901FAIZAN              H NO A-1/3 -1ST FLR BLK 3/A GULISTAN E JAUHAR                                M060000000634600000000029                                     G4         05
0032128813775650002831306801FAIZAN              H NO A-1/3 GR FLR BLK 3/A GULISTAN E JAUHAR                                     0000000146900000000000                                     G4         05
003222734482252000A485890101ANJUM RIZVI         H NO.B/165/3  2ND.FLOOR  BLOCK/3/A KDA SCH 36  GULISTAN E JAUHAR                0000000895900000000071                                     G1.6       05
0032382991918990001532492901ANJUM RIZVI         HOUSE NO B 165/3 1ST FLOOR BLOCK 3/A K D A SCH 36 GULISTAN E JAUHAR          M070000000104300000000028                                     G-4 GEN3   05
003242215708256000A485889901ANJUM RIZVI         HOUSE NO B 165/3 BLOCK 3/A K D A  SCH 36 GULISTAN E JAUHAR                      0000000488400000000073                                     G1.6       05
003252663391636000A494683201ISHRAT BANO         PLOT NO-A-1/1  1ST FLOOR  BLOCK-3/A GULISTAN-E-JAUHAR                           0000000583200000000084                                     G1.6       05
003264256142532000A494683101ISHRAT BANO         PLOT NO-A-1/1 GROUND FLOOR  BLOCK-3/A GULISTAN-E-JAUHAR                      M140000000269300000000003                                     G1.6       05
0032782651717180002817511701SABEEN SHAHID BAIG  HOUSE NO B-165/4 1ST FLOOR BLOCK 3-A GULISTAN E JAUHAR                          0000000727400000000101                                     G4         05
0032857775154240002804047901MUHAMMAD SHOAIB     H NO B/165/4 - BLK 3/A GULISTAN E JAUHAR                                        0000000654100000000064                                     G4         05
0032926569814080001811443101AHMED SALAM         H.NO. B-147 GR FLOOR BLOCK 3/A GULISTAN E JOUHAR                             M060000000072900000000027                                     G-4 GEN3   05
003301920225910000A618451901AHMED SALAM         H.NO. B-147 1ST  FLOOR BLOCK 3/A GULISTAN E JOUHAR                              0000000338900000000172                                     G1.6       05
003316913994909000A600681601HINA WASEEM         HOUSE NO. B-146/I 2ND FLOOR BLOCK 3-A GULISTAN E JOUHAR                         0000000138900000000073                                     G1.6       05
003328201408520000A600681501HINA WASEEM         HOUSE NO. B-146/I 1ST FLOOR BLOCK 3-A GULISTAN E JOUHAR                      M100000000088000000000047                                     G1.6       05
003330070375430000A642399501HINA WASEEM         HOUSE NO. B-146/I GROUND FLOOR BLOCK 3-A GULISTAN E JOUHAR                      0000000025600000000009                                     G1.6       05
003343895697383000A617802601MR. TASNEEM AHMED KHH.NO: B-146-II, FIRST FLOOR GULISTAN-E-JOUHAR BLOCK-3/A                         0000000231200000000156                                     G1.6       05
003357415397898000A617802501TASNEEM AHMED KHAN  H NO-B-146 II GR.FLOOR BLOCK-3-A GULISTAN E JAUHAR                              0000000239500000000121                                     G1.6       05
0033667836059110001811443201AHMED DEEN KHAN     H.NO. B-165/9/1 BLOCK 3/A GULISTAN E JAUHAR                                     0000000387800000000165                                     G-4 GEN3   05
003379044237466000A622939001MUHAMMAD HUMAYUN KHAH NO-B-148 GR.FLOOR BLOCK-3/A SCHEME-36 GULISTAN E JAUHAR                       0000000058400000000060                                     G1.6       05
003388193727387000A622938901MUHAMMAD HUMAYUN KHAH NO-148 1ST FLOOR BLOCK-3/A SCHEME-36 GULISTAN E JAUHAR                     M140000000028900000000021                                     G1.6       05
003398824249680000A566537401SYED AHMED ZAHID ALIPLOT NO B.149 BLOCK NO 3/A GULISTAN E JAUHAR KDA SCHEME NO 36                   0000000426000000000116                                     G1.6       05
0034007335412400001778615101SYED AHMED ZAHID ALIH NO.B 149 IST.FLOOR BLOCK-13-A GULISTAN E JAUHAR                               0000000239100000000099                                     G-4 GEN3   05
0034146520597430001778615201SYED AHMED ZAHID ALIH NO.B 149 2ND.FLOOR BLOCK-13-A GULISTAN E JAUHAR                            N200000000000200000000000                                     G-4 GEN3   05
0034244269043430001702302901ALI AHMED           BUNGLOW NO B 150/3 2ND FLOOR BLOCK 3/A GULISTAN E JUHAR SCH 36                  0000000278000000000092                                     G-4 GEN3   05
003433832770117000A504954001MUHAMMAD KHALIL     HOUSE NO B 150/3 1ST FLOOR BLOCK-3 A GULISTAN E JOUHAR                          0000000872800000000170                                     G1.6       05
003441887388670000A504953901MUHAMMAD KHALIL     HOUSE NO B 150/3 GROUND FLOOR BLOCK 3 A GULISTAN E JOUHAR                       0000000078200000000106                                     G1.6       05
0034511046226380002830768601ERUM FATIMA MUNEER  HOUSE NO B 150/2 GROUND FLOOR BLOCK 3-A GULISTAN E JAUHAR                       0000001059700000000116                                     G4         05
0034659449821040002830768501MUHAMMAD KHALIL     HOUSE NO D-150/2 1ST FLOOR BLOCK 3-A GULISTAN E JAUHAR                          0000000735100000000055                                     G4         05
003473946275551000A504953701SAMAN SHADMAN       H.NO-B/165-4-I GROUND FLOOR BLOCK-3/A GULISTAN-E-JAUHAR                         0000000381700000000045                                     G1.6       05
003486502512184000A504953801SAMAN SHADMAN       H.NO-B/165-4-I 1ST FLOOR BLOCK-3/A GULISTAN-E-JAUHAR                            0000000621000000000132                                     G1.6       05
0034979723218530001723150501RIAZ MALIK          PLOT NO.C.37 GRD FLOOR .02 BLOCK NO 3/A GULISTAN E JAUHAR SCHEME NO 33       M030000000243500000000079                                     G-4 GEN3   05
0035043299195960001723150601RIAZ MALIK          PLOT NO.C.37 FIRST FLOOR .03 BLOCK NO 3/A GULISTAN E JAUHAR SCHEME NO 33        0000000461200000000126                                     G-4 GEN3   05
0035195922020090001732294201SUMAIRA WAQAR       IST FLOOR PLOT NO-B-150/1 GULISTAN E JAUHAR BLOCK-3/A                           0000000480500000000124                                     G-4 GEN3   05
0035298791571620001732294101SUMAIRA WAQAR       GROUND FLOOR PLOT NO-B-150/1 GULISTAN E JAUHAR BLOCK-3/A                     N140000000289100000000000                                     G-4 GEN3   05
003538967860956000A607552401RIYAZ MALAK         HOUSE NO C-37 GROUND FLOOR BLK 3/A GULE JAUHAR                                  0000000164400000000075                                     G1.6       05
0035453070965650001723150701RIAZ MALIK          PLOT NO.C.37 GRD FLOOR .03 BLOCK NO 3/A GULISTAN E JAUHAR SCHEME NO 33          0000000368500000000202                                     G-4 GEN3   05
0035509722233410002750596201RIYAZ MALIK         HOUSE NO C-37 1ST FLOOR LEFT PORTION BLK 3-A GUL EJAUHAR                        0000001495500000000046                                     G4         05
0035615609461120002750596301RIYAZ MALIK         HOUSE NO C-37 1ST FLOOR RIGHT PORTION BLK 3-A GUL E JAUHAR                      0000000818500000000101                                     G4         05
003578122177655000A630038101TAHIRA ZAHEER       H.NO.B-167 1ST FLR BLK-3-A GULISTAN-E-JAUHAR                                    0000000237600000000156                                     G1.6       05
0035810305618120001520700301TAHIRA ZAHEER       H.NO.B-167 GR.FLR BLOCK-3-A GULILSTAN-E-JAUHAR                                  0000000519900000000043                                     G-4 GEN3   05
003594461450427000A630038201MUHAMMAD IFTIKHAR MUH NO B-168 1ST FLOOR GULISTAN E JAUHAR BLOCK 3/A NEAR JAVED HILL VIEW APPT K    0000000232400000000376                                     G1.6       05
003602461450425000A512612601MUHAMMAD  IFTIKHAR MH NO B-168 GR FLOOR GULISTAN E JAUHAR BLOCK 3/A NEAR JAVED HILL VIEW APPT KA N850000000003200000000000                                     G1.6       05
003611465694667000A630038301PARVEEN BANO        H.NO B/170 GR FLR NEAR JAVED HILL VEIW APPT BLK 3/A GULISTAN E JOUHAR           0000000174200000000217                                     G1.6       05
003622434606847000A630038401PARVEEN BANO        H.NO B/170 1ST FLR NEAR JAVED HILL VEIW APPT BLK 3/A GULISTAN E JOUHAR          0000000160800000000191                                     G1.6       05
003634861494599000A630038501PARVEEN BANO        H.NO B/170 2ND FLR NEAR JAVED HILL VEIW APPT BLK 3/A GULISTAN E JOUHAR          0000000194300000000215                                     G1.6       05
003642362450411000A495508101MUHAMMAD ASHRAF     PLOT NO 172-B GULISTAN E JAUHAR BLOCK 3/A NEAR JAVED HILL VIEW APPT KARACHI     0000001830700000000193                                     G1.6       05
000011004543728000A667863002MUHAMMAD MOAZZAM KHAPLOT NO R/220/1 GR FLR BLK 3 GULISTAN E JAUHAR                               N040000000000000000000000                                     G1.6       05
000026666758298000A532614602ARIF HUSSAIN        FLT NO.A/1  IST.FLOOR  PLOT NO.A-2/1  BLOCK/1 GULISTAN E JAUHAR                 0000000337500000000087                                     G1.6       05
000030360648315000A532614702SYED MUSTAFA HAMID  FLT NO.B/1  2ND.FLOOR SHAYAN TERRACE / HEIGHTS PLOT NO.A-2/1  BLOCK/1 GULIST M340000000214600000000028                                     G1.6       05
000040399730021000A532614402SHABANA SADIQ       FLT NO.A/4  IST.FLOOR  PLOT NO.A-2/1  BLOCK/1 GULISTAN E JAUHAR                 0000000424300000000086                                     G1.6       05
000050875769233000A532614902ZAKIA SAEED         FLT NO.B/2  2ND.FLOOR  PLOT NO.A-2/1  BLOCK/1 GULISTAN E JAUHAR                 0000000311700000000090                                     G1.6       05
000063770396918000A532614302SABA ARIF           FLT NO.B/4  2ND.FLOOR  PLOT NO.A-2/1  BLOCK/1 GULISTAN E JAUHAR              M080000000106000000000021                                     G1.6       05
000075640280697000A532615402MUHAMMAD ATHER MEHMOFLT NO.B/3  3RD.FLOOR  PLOT NO.A-2/1  BLOCK/1 GULISTAN E JAUHAR                 0000000846300000000166                                     G1.6       05
000088364399576000A532615002AGHA IMRAN          FLT NO.A/3  IST.FLOOR  PLOT NO.A-2/1  BLOCK/1 GULISTAN E JAUHAR                 0000000313300000000094                                     G1.6       05
000091303453594000A532614502FARHAN JAWED        FLT NO.P-2  3RD.FLOOR  PLOT NO.A-2/1  BLOCK/1 GULISTAN E JAUHAR                 0000000372300000000064                                     G1.6       05
000104334319542000A532614802TARIQ ALI SHAIKH    FLT NO.P-1  3RD.FLOOR  PLOT NO.A-2/1  BLOCK/1 GULISTAN E JAUHAR              M040000000342700000000017                                     G1.6       05
000112052776895000A596071302ASIF MATEEN         FLT NO.G.2    GR.FLOOR  PLOT NO.A2/1  BLOCK/1 GULISTAN E JUAHAR                 0000000095100000000028                                     G1.6       05
000123855979389000A482782602RAFIQ AHMED         PLOT NO R/220/1 1ST FLR BLK 3 GULISTAN E JAUHAR                                 0000000520400000000113                                     G1.6       05
000134181302395000A482782702ARSHAD ASIF         PLOT NO R/220/1 2ND  FLR BLK 3 GULISTAN E JAUHAR                             M100000000409700000000064                                     G1.6       05
000148091450723000A620663202SHAMEEM  AHMAD      PLOT NO B 222 BLK NO 03 SCH 36 OPP PLOT NO C-12/BLK-15 GULISTAN E JAUHAR KAR M190000000034700000000013                                     G1.6       05
000154824482160000A630038702MUHAMMAD YAQOOB     PLOT NO. B-224 1ST  FLOOR BLOCK 3 GULISTAN E JOUHAR                          M030000000001000000000000                                     G1.6       05
0001661573924770001713948502MUHAMMAD YAQOOB     PLOT NO. B-224 GRD FLOOR BLOCK 3 GULISTAN E JOUHAR                              0000000501200000000106                                     G-4 GEN3   05
0001713024508460001808447602RAZIA SAEED         PLOT NO-B-226 BLOCK-3 SCHEME-36 GULISTAN-E-JAUHAR                            M030000000099700000000011                                     G-4 GEN3   05
000184652450343000A605655502MANZAR MASOOD       PLOT NO B-228 BLOCK MO 3 SCHEME 36 GULISTAN E JAUHAR KARACHI                 N470000000000000000000000                                     G1.6       05
000192961450591000A617152202MUHAMMAD ASGHAR     H NO-B-233 BLOCK-3 GULISTAN-E-JAUHAR SCHEME-36                                  0000000207200000000160                                     G1.6       05
000204352501526000A617152002FAISAL HASAN        HOUSE NO B 232 BLOCK 3 GULISTAN E JAUHAR                                        0000000316100000000221                                     G1.6       05
000216955341379000A617152102FASAIL HASAN        H NO B-232  IST FLOOR  BLOCK-3  GULISTAN E JAUHAR                               0000000197700000000103                                     G1.6       05
0002287984424620002771250202SYED FAISAL UR REHMAH NO L-30/1 GROUND FLR BLK 3 GULISTAN E JAUHAR                               M040000000621800000000061                                     G4         05
0002363871019360002771250102SYED FAISAL UR REHMAH NO L-30/1 1ST FLR BLK 3 GULISTAN E JAUHAR                                  N030000000401900000000000                                     G4         05
000245982450706000A617152302FEROZ ALAM KHAN     PLOT NO B-239 BLOCK 3 GULISTAN E JAUHER KARACHI                              M050000000030800000000005                                     G1.6       05
000257577073468000A427974502SAIMA USMANI        FLT NO.109  IST.FLR WAQAR SHOPING MALL & APPARTMENT BLOCK/3 PLOT NO.L1-L1-1  M100000000214700000000000                                     G1.6       05
0002693908014860002861419702SYEDA ALMAS JAFFAR  FLT NO.210  2ND.FLR WAQAR SHOPPING MALL & APPARTMENT BLK/3 PLOT NO.L-1-L1-1     0000000289700000000033                                     AMR G-4    05
000275802795528000A616975002CHAUDRY SAJJAD AKBARFLT NO.310 3RD.FLR WAQAR SHOPPING MALL & APPARTMENT BLK/3 PLOT NO.L-1-L-1-1     0000000202400000000103                                     G1.6       05
000288234575989000A616974502SYEDA SANJEEDA HASSAFLT NO.409  4TH.FLR WAQAR SHOPPING MALL & APPARTMENT BLK/3 PLOT NO.L-1-L-1-1 N220000000003000000000000                                     G1.6       05
000299406995030000A616974002UZMA ASIM           FLT NO.108  IST.FLR WAQAR SHOPING MALL & APPARTMENT BLOCK/3 PLOT NO.L1-L1-1  M190000000073700000000019                                     G1.6       05
000308233815868000A427974202DURESHAHWAR         FLT NO.209  2ND.FLR WAQAR SHOPPING MALL & APPARTMENT BLK/3 PLOT NO.L-1-L1-1     0000000501900000000109                                     G1.6       05
000311926433084000A616973802MEHWISH WASEEM      FLT NO.309 3RD.FLR WAQAR SHOPPING MALL & APPARTMENT BLK/3 PLOT NO.L-1-L-1-1     0000000117700000000079                                     G1.6       05
000320555590852000A616974102ABARAR HASSAN       FLT NO.408  4TH.FLR WAQAR SHOPPING MALL & APPARTMENT BLK/3 PLOT NO.L-1-L-1-1    0000000144200000000073                                     G1.6       05
000336570679452000A616973702SARWAT RAHEEL       FLT NO.407  4TH.FLR WAQAR SHOPPING MALL & APPARTMENT BLK/3 PLOT NO.L-1-L-1-1    0000000150700000000062                                     G1.6       05
0003489394910490001751934602SALMA ISRAR         FLT NO.308 3RD.FLR WAQAR SHOPPING MALL & APPARTMENT BLK/3 PLOT NO.L-1-L-1-1     0000000253400000000079                                     G-4 GEN3   05
000353756280103000A427974402HUMAIRA ANJUM       FLT NO.208  2ND.FLR WAQAR SHOPPING MALL & APPARTMENT BLK/3 PLOT NO.L-1-L1-1     0000000417800000000055                                     G1.6       05
000367434881834000A616975202HAIDER KHAN         FLT NO.107  IST.FLR WAQAR SHOPING MALL & APPARTMENT BLOCK/3 PLOT NO.L/1-L1/1    0000000196800000000084                                     G1.6       05
000372220752409000A427974902ZEBA SHABBIR        FLT NO.106  IST.FLR WAQAR SHOPING MALL & APPARTMENT BLOCK/3 PLOT NO.L-1-L1/1 M120000000456700000000027                                     G1.6       05
000380257524643000A427905002KANWAL YOUNUS       FLT NO.307 3RD.FLR WAQAR SHOPPING MALL & APPARTMENT BLK/3 PLOT NO.L-1-L-1-1  M060000000265900000000029                                     G1.6       05
0003987379996520001707486402MUSHTAQ RAZA        FLT NO.207  2ND.FLR WAQAR SHOPPING MALL & APPARTMENT BLK/3 PLOT NO.L-1/L1-1     0000000213300000000094                                     G-4 GEN3   05
000400647247972000A607583302FAROOQ SHAHZAD      FLT NO.406  4TH.FLR WAQAR SHOPPING MALL & APPARTMENT BLK/3 PLOT NO.L-1-L-1-1    0000000131900000000125                                     G1.6       05
000412541676474000A427904702KASHIF FAROOQ       FLT NO.405  4TH.FLR WAQAR SHOPPING MALL & APPARTMENT BLK/3 PLOT NO.L-1-L-1-1 M700000000380900000000029                                     G1.6       05
000420410743035000A427904402ZAFAR JAWAID        FLT NO.306 3RD.FLR WAQAR SHOPPING MALL & APPARTMENT BLK/3 PLOT NO.L-1-L-1-1     0000000381800000000023                                     G1.6       05
000438487904574000A616974902NADIR HASSAIN       FLT NO.206  2ND.FLR WAQAR SHOPPING MALL & APPARTMENT BLK/3 PLOT NO.L-1-L1-1     0000000151300000000099                                     G1.6       05
000443862255031000A634485002IMRANA SHABBIR      FLT NO.105  IST.FLR WAQAR SHOPING MALL & APPARTMENT BLOCK/3 PLOT NO.L/1-L1/1    0000000051600000000033                                     G1.6       05
000450038074309000A616973902MAHJABEEN RAEES     FLT NO.205  2ND.FLR WAQAR SHOPPING MALL & APPARTMENT BLK/3 PLOT NO.L-1-L1-1  M270000000036300000000009                                     G1.6       05
000467838849711000A616974402JAMIL AHMED UIRK    FLT NO.305 3RD.FLR WAQAR SHOPPING MALL & APPARTMENT BLK/3 PLOT NO.L-1-L-1-1  M400000000027900000000024                                     G1.6       05
000470543405842000A625036102RIAZ MUHAMMAD KHAN  FLT NO.404  4TH.FLR WAQAR SHOPPING MALL & APPARTMENT BLK/3 PLOT NO.L-1-L-1-1 M180000000012800000000002                                     G1.6       05
000486312078267000A616974702MUHAMMAD AYUB       FLT NO.104  IST.FLR WAQAR SHOPING MALL & APPARTMENT BLOCK/3 PLOT NO.L-1 & L1    0000000229300000000139                                     G1.6       05
000490735896348000A616974302NASREEN SHABBIR ALI FLT NO.204  2ND.FLR WAQAR SHOPPING MALL & APPARTMENT BLK/3 PLOT NO.L-1-L1-1  M070000000035200000000001                                     G1.6       05
000500770540112000A428201802ASSIYA MOIN         FLT NO.304 3RD.FLR WAQAR SHOPPING MALL & APPARTMENT BLK/3 PLOT NO.L-1-L-1-1  M060000000598400000000016                                     G1.6       05
000518046625208000A427904302SHAHINA JABEEN      FLT NO.403  4TH.FLR WAQAR SHOPPING MALL & APPARTMENT BLK/3 PLOT NO.L-1-L-1-1    0000000611200000000105                                     G1.6       05
0005260660843510001751934802SHABNAM             FLT NO.303 3RD.FLR WAQAR SHOPPING MALL & APPARTMENT BLK/3 PLOT NO.L-1-L1-1      0000000195400000000058                                     G-4 GEN3   05
000539065209993000A616974202SHAISTA PARVEEN     FLT NO.203  2ND.FLR WAQAR SHOPPING MALL & APPARTMENT BLK/3 PLOT NO.L-1-L1-1  M080000000098600000000044                                     G1.6       05
000541714999937000A645821302FAHIM AHMED RIZVI   FLT NO.103  IST.FLR WAQAR SHOPING MALL & APPARTMENT BLOCK/3 PLOT NO.L/1 & L1 M120000000016100000000025                                     G1.6       05
000552658749077000A427904902SOHAIL SHAMS        FLT NO.102  IST.FLR WAQAR SHOPING MALL & APPARTMENT BLOCK/3 PLOT NO.L-1 & L1 M580000000347100000000005                                     G1.6       05
000560306796153000A616974602MUHAMMAD AYUB       FLT NO.202  2ND.FLR WAQAR SHOPPING MALL & APPARTMENT BLK/3 PLOT NO.L-1-L1-1  M020000000039000000000021                                     G1.6       05
000570482178682000A542074702HABIBA KHATOON      FLT NO.302  3RD.FLR WAQAR SHOPPING MALL & APPARTMENT BLK/3 PLOT NO.L-1-L1-1     0000000224500000000041                                     G1.6       05
000581355369860000A427904202SADIA ZAKIR         FLT NO.402  4TH.FLR WAQAR SHOPPING MALL & APPARTMENT BLK/3 PLOT NO.L-1-L-1-1 N100000000252300000000017                                     G1.6       05
000598983787418000A644050902MUHAMMAD HUSSAIN    FLT NO.101 IST.FLR WAQAR SHOPING MALL & APPARTMENT BLOCK/3 PLOT NO.L/1 & L1/    0000000034700000000055                                     G1.6       05
000600026851632000A616974802MUHAMMAD MAIRAJ     FLT NO.201  2ND.FLR WAQAR SHOPING MALL & APPARTMENT BLOCK/3 PLOT NO.L-1-L1-1    0000000165100000000109                                     G1.6       05
000610877056464000A644053102RIZWAN AKBER        FLT NO.301  3RD.FLR WAQAR SHOPPING MALL & APPARTMENT BLK/3 PLOT NO.L-1-L1-1  M010000000008600000000006                                     G1.6       05
000620582450645000A522991602MASOOD ANDLIB       FLT NO.A/1-101/2  IST.FLOOR M/S.PACIFIC VIEW PLOT NO.L-1-2  L 1 3 BLOCK/3 GU    0000000361400000000044                                     G1.6       05
000633582450648000A522991402FARAH AFTAB         FLT NO.A/1-401/2  4TH.FLOOR M/S.PACIFIC VIEW PLOT NO.L-1-2 L 1 3  BLOCK/3 GU    0000000582500000000149                                     G1.6       05
000642582450647000A522991502ABDUL HAMEED MEMON  FLT NO.A/1-301/2  3RD.FLOOR M/S.PACIFIC VIEW PLOT NO.L-1-2  L 1 3BLOCK/3 GUL    0000000423800000000069                                     G1.6       05
000651582450646000A522992002AFLAK UZ ZIA        FLT NO.A/1-201/2  2ND.FLOOR M/S.PACIFIC VIEW PLOT NO.L-1-2 L 1 3 BLOCK/3 GUL M120000000220900000000025                                     G1.6       05
000664582450649000A522991802SEEMA BADAR         FLT NO.A/1-102/2  IST.FLOOR M/S.PACIFIC VIEW PLOT NO.L-1-2  L 1 3 BLOCK/3 GU    0000000395900000000073                                     G1.6       05
000675582450650000A427974602SHARIFAN BIBI       FLT NO.A/1-202/2  2ND.FLOOR M/S.PACIFIC VIEW PLOT NO.L-1-2  L 1 3 BLOCK/3 GU    0000000551600000000062                                     G1.6       05
000687582450652000A427974702HAZOOR BUKSH        FLT NO.A/402/2  4TH.FLOOR M/S.PACIFIC VIEW PLOT NO.L-1-2  L 1 3 BLOCK/3 GULI    0000000357300000000039                                     G1.6       05
000696582450651000A522991902ABDUL HAMID KHAN    FLT NO.A/302/2  3RD.FLOOR M/S.PACIFIC VIEW PLOT NO.L-1-2  L 1 3 BLOCK/3 GULI    0000000276000000000036                                     G1.6       05
000709582450654000A522991302BILQEES MUSHTAQ     FLT NO.A/203/2  2ND.FLOOR M/S.PACIFIC VIEW PLOT NO.L-1-2  L 1 3 BLOCK/3 GULI M120000000192800000000036                                     G1.6       05
000710682450655000A522991702SAAD KAZMI          FLT NO.A/1-303/2  3RD.FLOOR M/S.PACIFIC VIEW PLOT NO.L-1-2  L 1 3 BLOCK/3 GU    0000000308600000000117                                     G1.6       05
000721682450656000A523052102MUSHTAQ AHMED       FLT NO.A/403/2  4TH.FLOOR M/S.PACIFIC VIEW PLOT NO.L-1-2  L 1 3 BLOCK/3 GULI    0000000221300000000052                                     G1.6       05
000738582450653000A523050802NOOR US SABAH       FLT NO.A/103/2  IST.FLOOR M/S.PACIFIC VIEW PLOT NO.L-1-2  L 1 3 BLOCK/3 GULI M270000000225800000000028                                     G1.6       05
000742682450657000A523051902SHAISTA MANSOOR     FLT NO.B/1-104/2  IST.FLOOR M/S.PACIFIC VIEW PLOT NO.L-1-2  L 1 3 BLOCK/3 GU M020000000237900000000066                                     G1.6       05
000753682450658000A523050902SYED ZAFAR HASSAN   FLT NO.B/1-204/2  2ND.FLOOR M/S.PACIFIC VIEW PLOT NO.L-1-2  L 1 3 BLOCK/3 GU M330000000365700000000023                                     G1.6       05
000764682450659000A523051502MUHAMMAD ASIF SIDDIQFLT NO.B/1-304/2  3RD.FLOOR M/S.PACIFIC VIEW PLOT NO.L-1-2  L 1 3 BLOCK/3 GU    0000000193500000000068                                     G1.6       05
000775682450660000A523052002KHALID HAMID KHAN GHFLT NO.B/1-404/2  4TH.FLOOR M/S.PACIFIC VIEW PLOT NO.L-1-2  L 1 3 BLOCK/3 GU M120000000199700000000036                                     G1.6       05
000782882450677000A523051302SHAHIDA MAZHAR      FLT NO.A/1-EX-105/3  IST.FLOOR M/S.PACIFIC VIEW PLOT NO.L-1-3  L 1 2   BLOCK    0000000327000000000072                                     G1.6       05
0007938824506780001821287002MUHAMMAD IQBAL SOOMRFLT NO.A-1-EX-205/3 2ND.FLOOR M/S.PACIFIC VIEW PLOT NO.L-1-3  L 1 2   BLOCK/ M120000000018800000000034                                     G-4 GEN3   05
000804882450679000A427920402SAADAT ALI          FLT NO.A-1-EX-305/3 3RD.FLOOR M/S.PACIFIC VIEW PLOT NO.L-1-3  L 1 2   BLOCK/    0000000581600000000083                                     G1.6       05
000815882450780000A523051802KHALID HAMID KHAN GHFLT NO.A-1-EX-405/3 4TH.FLOOR M/S.PACIFIC VIEW PLOT NO.L-1-3  L 1 2  BLOCK/3 M110000000390100000000082                                     G1.6       05
000820882450675000A522992102MUHAMMAD IBRAHIM    FLT NO.B/304/3  3RD.FLOOR M/S.PACIFIC VIEW PLOT NO.L-1-3  L 1 2  BLOCK/3 GUL M490000000206600000000026                                     G1.6       05
000839782450674000A522992202SYED AZHAR ALI      FLT NO.B/204/3  2ND.FLOOR M/S.PACIFIC VIEW PLOT NO.L-1-3  L 1 2  BLOCK/3 GUL M330000000242700000000022                                     G1.6       05
000841882450676000A522993002GHULAM MURTAZA SHAIKFLT NO.B/404/3  4TH.FLOOR M/S.PACIFIC VIEW PLOT NO.L-1-3  L 1 2   BLOCK/3 GU M730000000101500000000011                                     G1.6       05
000858782450673000A522992602ABDUL QAYYUM QURESHIFLT NO.B/104/3  IST.FLOOR M/S.PACIFIC VIEW PLOT NO.L-1-3  L 1 2  BLOCK/3 GUL M060000000247700000000028                                     G1.6       05
000864782450669000A522992302YUMNA KAZMI         FLT NO.A/103/3  IST.FLOOR M/S.PACIFIC VIEW PLOT NO.L-1-3  L 1 2 BLOCK/3 GULI M060000000185000000000029                                     G1.6       05
000876782450671000A522992702SHAIKH ABDUL MUQTADIFLT NO.A/303/3  3RD.FLOOR M/S.PACIFIC VIEW PLOT NO.L-1-3  L 1 2 BLOCK/3 GULI M110000000295600000000070                                     G1.6       05
000887782450672000A522992902GHULAM ABBAS SHAIKH FLT NO.A/403/3  4TH.FLOOR M/S.PACIFIC VIEW PLOT NO.L-1-3  L 1 2 BLOCK/3 GULI    0000000572600000000108                                     G1.6       05
000895782450670000A427974102KHALIL AHMED        FLT NO.A/203/3  2ND.FLOOR M/S.PACIFIC VIEW PLOT NO.L-1-3  L 1 2 BLOCK/3 GULI M020000000596000000000043                                     G1.6       05
0009017824506660001724601502FARHAT JUNAID       FLT NO.A/202/3  2ND.FLOOR M/S.PACIFIC VIEW PLOT NO.L-1-3  L 1 2 BLOCK/3 GULI    0000000134600000000044                                     G-4 GEN3   05
000912782450667000A522992802SHAZIA QAMAR        FLT NO.A/302/3  3RD.FLOOR M/S.PACIFIC VIEW PLOT NO.L-1-3  L 1 2  BLOCK/3 GUL M120000000231500000000019                                     G1.6       05
000923782450668000A522992402MISS NAZRA NASREEN  FLT NO.A/402/3  4TH.FLOOR M/S.PACIFIC VIEW PLOT NO.L-1-3  L 1 2  BLOCK/3 GUL    0000000159600000000049                                     G1.6       05
000930782450665000A522992502SYED MUHAMMAD IMRAN FLT NO.A/1-102/3  IST.FLOOR M/S.PACIFIC VIEW PLOT NO.L-1-3  L 1 2 BLOCK/3 GU    0000000228300000000050                                     G1.6       05
000946682450661000A523051402SHAHANA BEGUM       FLT NO.A/1-101/3  IST.FLOOR M/S.PACIFIC VIEW PLOT NO.L-1-3  L 1 2 BLOCK/3 GU M110000000204600000000047                                     G1.6       05
000959682450664000A523051202MUHAMMAD OSAID KAZMIFLT NO.A/1-401/3  4TH.FLOOR M/S.PACIFIC VIEW PLOT NO.L-1-3  L 1 2 BLOCK/3 GU    0000000392400000000090                                     G1.6       05
000968682450663000A523051702AASIA TAUQEER       FLAT NO A-1/301/03 PACIFIC VIEW GULISTAN E JAUHAR BLOCK 3 KARACHI               0000000915500000000146                                     G1.6       05
000978655048646000A622008402NADIA ARIF          H NO C-32/A 2 2ND FLOOR BLOCK 3/A GULISTAN E JOUHAR SEC 36                   N210000000000000000000000                                     G1.6       05
000987682450662000A626655002AZMAT ALI BAIG      FLT NO.A/1-201/3  2ND.FLOOR M/S.PACIFIC VIEW PLOT NO.L-1-3  L 1 2 BLOCK/3 GU M020000000148500000000122                                     G1.6       05
000997681450682000A523127802ZAFAR IQBAL         FLT NO.C/410  4TH.FLOOR JAVED HILL VIEW PLOT NO.L-1-5  BLOCK/3 GULISTAN E JA M060000000310600000000040                                     G1.6       05
001000981450705000A523127002ZAFAR IQBAL         FLT NO.C/310  3RD.FLOOR JAVED HILL VIEW PLOT NO.L-1-5  BLOCK/3 GULISTAN E JA M230000000305000000000026                                     G1.6       05
001018902450929000A523127102SHAHIDA BANO        FLT NO.C/210  2ND.FLOOR JAVED HILL VIEW PLOT NO.L-1-5  BLOCK/3 GULISTAN E JA M160000000392200000000008                                     G1.6       05
001029822450136000A523126902MUHAMMAD BASHIR     FLT NO.C/110  IST.FLOOR JAVED HILL VIEW PLOT NO.L-1-5  BLOCK/3 GULISTAN E JA M390000000224400000000007                                     G1.6       05
001036681450681000A523052602AJAB KHATOON        FLT NO.A1/409  4TH.FLOOR JAVED HILL VIEW PLOT NO.L-1-5  BLOCK/3 GULISTAN E J    0000000563500000000129                                     G1.6       05
001041981450706000A523052502BABAR SHAHBAZ SIDDIQFLT NO.A1/309  3RD.FLOOR JAVED HILL VIEW PLOT NO.L-1-5  BLOCK/3 GULISTAN E J    0000000232200000000023                                     G1.6       05
001051012450932000A523052302ZAFAR IQBAL         FLT NO.A1/209  2ND.FLOOR JAVED HILL VIEW PLOT NO.L-1-5  BLOCK/3 GULISTAN E J    0000000485300000000099                                     G1.6       05
001068922450145000A565743302ZAFAR IQBAL         FLT NO.A1/109  IST.FLOOR JAVED HILL VIEW PLOT NO.L-1-5  BLOCK/3 GULISTAN E J    0000000313900000000086                                     G1.6       05
001075681450680000A625839802SHEHNEELA AHMED     FLT NO.B/411  4TH.FLOOR JAVED HILL VIEW PLOT NO.L-1-5  BLOCK/3 GULISTAN E JA M340000000030300000000017                                     G1.6       05
001089881450704000A523051002MUHAMMAD NASEEM     FLT NO.B/311  3RD.FLOOR JAVED HILL VIEW PLOT NO.L-1-5  BLOCK/3 GULISTAN E JA N090000000269100000000000                                     G1.6       05
001096202450841000A519231402ZAFAR IQBAL         FLT NO.B/211  2ND.FLOOR JAVED HILL VIEW PLOT NO.L-1-5  BLOCK/3 GULISTAN E JA    0000000417000000000067                                     G1.6       05
0011078224501340002842181102ZAFAR IQBAL         FLT NO.B/111  IST.FLOOR JAVED HILL VIEW PLOT NO.L-1-5  BLOCK/3 GULISTAN E JA    0000000195000000000062                                     G4         05
001110032450147000A523127402ZAFAR IQBAL         FLT NO.A/108  IST.FLOOR JAVED HILL VIEW PLOT NO.L-1-5  BLOCK/3 GULISTAN E JA M260000000250300000000031                                     G1.6       05
001124912450025000A523127202MUSHTAQ AHMED       FLT NO.A/208  2ND.FLOOR JAVED HILL VIEW PLOT NO.L-1-5  BLOCK/3 GULISTAN E JA    0000000425700000000074                                     G1.6       05
001133981450708000A523127602MUHAMMAD SALEEM     FLT NO.A/308  3RD.FLOOR JAVED HILL VIEW PLOT NO.L-1-5  BLOCK/3 GULISTAN E JA M040000000304100000000032                                     G1.6       05
001148681450683000A523127702SAADIA FARHAT QUDDUSFLT NO.A/408  4TH.FLOOR JAVED HILL VIEW PLOT NO.L-1-5  BLOCK/3 GULISTAN E JA M050000000011600000000001                                     G1.6       05
001159681450684000A523127302MISS LUBNA DURRANI  FLT NO.A/407  4TH.FLOOR JAVED HILL VIEW PLOT NO.L-1-5  BLOCK/3 GULISTAN E JA M060000000311700000000038                                     G1.6       05
001164981450709000A427950902ZAFAR IQBAL         FLT NO.A/307  3RD.FLOOR JAVED HILL VIEW PLOT NO.L-1-5  BLOCK/3 GULISTAN E JA    0000000492400000000015                                     G1.6       05
001171391450746000A523127502ZAFAR IQBAL         FLT NO.A/207  2ND.FLOOR JAVED HILL VIEW PLOT NO.L-1-5  BLOCK/3 GULISTAN E JA M440000000153200000000007                                     G1.6       05
001181032450148000A539888202ZAFAR IQBAL         FLT NO.A/107  IST.FLOOR JAVED HILL VIEW PLOT NO.L-1-5  BLOCK/3 GULISTAN E JA M340000000202200000000030                                     G1.6       05
0011988814507030002759937402ZAFAR IQBAL         FLT NO.B/312  3RD.FLOOR JAVED HILL VIEW PLOT NO.L-1-5  BLOCK/3 GULISTAN E JA M820000000297600000000026                                     G4         05
0012048914507990001511661102ZAFAR IQBAL         FLT NO.B/212  2ND.FLOOR JAVED HILL VIEW PLOT NO.L-1-5  BLOCK/3 GULISTAN E JA    0000000205900000000043                                     G-4 GEN3   05
001214822450031000A519232902ZAFAR IQBAL         FLT NO.B/112  IST.FLOOR JAVED HILL VIEW PLOT NO.L-1-5  BLOCK/3 GULISTAN E JA M130000000124300000000021                                     G1.6       05
0012236814506780001511660902AMINA KAUSAR        FLT NO.B/413  4TH.FLOOR JAVED HILL VIEW PLOT NO.L-1-5  BLOCK/3 GULISTAN E JA    0000000484700000000082                                     G-4 GEN3   05
001236881450701000A519233002GHULAM RASOOL SHORO FLT NO.B/313  3RD.FLOOR JAVED HILL VIEW PLOT NO.L-1-5  BLOCK/3 GULISTAN E JA M070000000121300000000015                                     G1.6       05
0012464914507610001511661002LATIFA BEGUM        FLT NO.B/213  2ND.FLOOR JAVED HILL VIEW PLOT NO.L-1-5  BLOCK/3 GULISTAN E JA M070000000112500000000000                                     G-4 GEN3   05
001253822450030000A521990402ROOHI NAVEED        FLT NO.B/113  IST.FLOOR JAVED HILL VIEW PLOT NO.L-1-5  BLOCK/3 GULISTAN E JA    0000000315700000000036                                     G1.6       05
001268591450773000A521990802ZAFAR IQBAL         FLT NO.A/106  IST.FLOOR JAVED HILL VIEW PLOT NO.L-1-5  BLOCK/3 GULISTAN E JA M350000000261000000000020                                     G1.6       05
001274291450739000A519232802SHAHIDA PERVEEN     FLT NO.A/206  2ND.FLOOR JAVED HILL VIEW PLOT NO.L-1-5  BLOCK/3 GULISTAN E JA    0000000230900000000050                                     G1.6       05
0012859814507100001511555002ZAFAR IQBAL         FLT NO.A/306  3RD.FLOOR JAVED HILL VIEW PLOT NO.L-1-5  BLOCK/3 GULISTAN E JA M250000000103300000000004                                     G-4 GEN3   05
0012907814506850001511660802IMRAN KAHN          FLT NO.A/406  4TH.FLOOR JAVED HILL VIEW PLOT NO.L-1-5  BLOCK/3 GULISTAN E JA N080000000361500000000002                                     G-4 GEN3   05
001301781450686000A521991602AMJAD BASHIR        FLT NO.A/405  4TH.FLOOR JAVED HILL VIEW PLOT NO.L-1-5  BLOCK/3 GULISTAN E JA    0000000374300000000107                                     G1.6       05
001317981450712000A521990002ADEEL NOOR UL ISLAM FLAT NO A/305 3RD FLOOR JAVED HILL VIEW PLOT NO L 1 5 BLOCK 3 GULISTAN E JAU    0000000404300000000041                                     G1.6       05
001322481450641000A521991402ZAFAR IQBAL         FLT NO.A/205  2ND.FLOOR JAVED HILL VIEW PLOT NO.L-1-5  BLOCK/3 GULISTAN E JA M080000000835500000000189                                     G1.6       05
0013395914507740001511660602NAUSHAD UL HASSAN   FLT NO.A/105  IST.FLOOR JAVED HILL VIEW PLOT NO.L-1-5  BLOCK/3 GULISTAN E JA M250000000230500000000031                                     G-4 GEN3   05
